:020000041000EA
:1000000000B5324B212058609868022188439860DF
:10001000D860186158612E4B002199600221596106
:100020000121F02299502B49196001219960352056
:1000300000F044F80222904214D00621196600F024
:1000400034F8196E01211966002018661A6600F04E
:100050002CF8196E196E196E052000F02FF8012189
:100060000842F9D1002199601B49196000215960AB
:100070001A491B48016001219960EB211966A021F2
:10008000196600F012F800219960164914480160C1
:100090000121996001BC002800D000471248134993
:1000A000086003C880F30888084703B5996A0420EC
:1000B0000142FBD001200142F8D103BD02B5186610
:1000C0001866FFF7F2FF186E186E02BD00000240BE
:1000D000000000180000070000035F00212200005C
:1000E000F4000018222000A00001001008ED00E03C
:1000F00000000000000000000000000074B24E7A12
:1001000000200420F7010010C3010010C5010010F9
:10011000C1010010C1010010C1010010C101001097
:10012000C1010010C1010010C1010010C701001081
:10013000C1010010C1010010C9010010CB01001065
:10014000CD010010CD010010CD010010CD01001037
:10015000CD010010CD010010CD010010CD01001027
:10016000CD010010CD010010CD010010CD01001017
:10017000CD010010CD010010CD010010CD01001007
:10018000CD010010CD010010CD010010CD010010F7
:10019000CD010010CD010010CD010010CD010010E7
:1001A000CD010010CD010010CD010010CD010010D7
:1001B000CD010010CD010010CD010010CD010010C7
:1001C00000BE00BE00BE00BE00BE00BEEFF3058054
:1001D000103800BEF2EB8871704D0010944D001085
:1001E0003402001090A31AE700201F49086006C8D7
:1001F00081F3088810471D48006800282FD10DA4FE
:100200000ECC002902D000F012F8F9E71849194A7B
:10021000002000E001C19142FCD1174988471749ED
:1002200088471749884700BEFDE701C901C29A42C5
:10023000FBD37047944D0010C0000020F0930120C4
:10024000C4E001100000042000000420C4E00110FC
:10025000001004200010042000000000704709482E
:1002600001F042FF0047000008ED00E0000000D070
:10027000F0930120E8A00120611F00100503001089
:10028000552000105756000006005250ABB3605383
:10029000684B001006005250861C0302784B001079
:1002A000060052505422A29D804B0010050052506F
:1002B000DE65F468C4E00110F8B5C04610B5064C20
:1002C0002378002B07D1054B002B02D0044800E017
:1002D00000BF0123237010BDF09601200000000034
:1002E000804A0010044B10B5002B03D0034904488A
:1002F00000E000BF10BDC04600000000F4960120E1
:10030000804A0010F0B5C646192000B500F0E8F9A3
:10031000D02380221B0692045A6204F0DFFA0020E8
:1003200002F024FE0021032000F09CF800210420AC
:1003300000F098F8144D154F154E01200021404251
:1003400002F086FE01F092F83B682C68984600297E
:1003500011D0FA220023920001F036FF001B404525
:10036000EBD3307844442C6004F0D0FA0122337887
:1003700053403370E1E7FA21890001F0E7FE001BEA
:100380004045DAD3EDE7C046C0A00120E00E0020D2
:10039000E5A00120FA22024B52001A607047C046C5
:1003A000E00E0020FA22024B52001A607047C0464D
:1003B000E00E0020FA22024B52001A607047C0463D
:1003C000E00E0020FA22024B52001A607047C0462D
:1003D000E00E002000487047AC4A0010004870470B
:1003E000C04A001070B5002826D0032831D81A4B17
:1003F0008000C658300004F09BFAC0B2011C1F28D0
:1004000015D8C9B2002821D00023144DAA1CF05CD5
:100410000133DCB210800232A142F8D8C02301318E
:10042000C9B249009B0019432800298070BD1F21D3
:10043000C9B20028E8D109E0084D074B022219682B
:10044000A81C02F08BF9C1218900EDE70449034D96
:10045000EAE70020EAE7C046E40E002024970120E6
:1004600002030000F0B54E46DE4657464546E0B56D
:1004700083B006000191012847D98223264F851EAB
:10048000ED027C195B0220220021E01802F060F9E5
:1004900082235B02214AEB18DB191A60204A2148AB
:1004A0005A609346204A00219A60204B9246994612
:1004B0004A461F4BE2521F4B984642461E4BE250A3
:1004C0001E4B1F4AE2521F4B2022E0521E4BE652A7
:1004D0001E4BE01802F03CF91C4B194A9C461C4B81
:1004E0006544EF193B605B467B6053464D46BB60FD
:1004F000184B0C48E5524546174BE550174BE25256
:10050000174B019AE052174BE25203B0F0BCBB46C6
:10051000B246A946A046F0BDF40E00202E202020B1
:10052000202020206543000020202010526D000074
:100530000E04010065436543100401001604010028
:10054000886D0000180401001A0401002004010055
:100550002E2E20202E04010030040100360401005C
:10056000380401003A04010001207047F0B5C64686
:1005700000B588B08C4602A998460B000E4C1700B7
:1005800024CC24C31D000D4C45CC45C322786046C5
:100590001A700B4B0722019302F0E0F829000C229D
:1005A000380002F0DBF80322404601A902F0D6F839
:1005B00008B080BCB846F0BD804A0010E04A001088
:1005C000312E3000030010B50120012B00D010BDEA
:1005D00004F0A6F943425841C0B2F8E7024B0B6061
:1005E00080239B0013807047FFFF000001207047AD
:1005F000180010B5C12908D849028918054A891878
:10060000029A02F0ABF8029810BD0021029A02F0A3
:100610009FF8F8E7F40E002001207047F8B50C00B1
:100620001900C12C2ED86302822418486402C6180F
:100630000419A64215D3361B0024154FF60A2500CF
:100640000134BC421CD0B542F9D10025022C0FD098
:100650000F4F2C000135BD4203D0B442F9D1032D18
:100660000AD09A188018069A02F078F80698F8BD11
:10067000084C094D2560F4E7064C61352560F0E72C
:100680000025E5E701204042F1E7C046F40E0020D6
:10069000FF3F0000E00E0020C409000010B5002359
:1006A0002022052103F08AFB0120404210BDC046F4
:1006B000094A830094464022634410B51C68C00078
:1006C0006240C02414408022520113431C60034B3B
:1006D0009C466044416010BD04C0014000400140A0
:1006E0000123D0228340120693629361094A83005A
:1006F0009446402263441968C0004A40C02111401A
:100700008022520113431960034B9C460523604429
:100710004360704704C0014000400140024B18682C
:100720008007C00F7047C04600C0064070B5EFF3A9
:10073000108C72B60D4D2B68002BFCD0BFF35F8F71
:100740000724CB08C618C05C01230C40A3401C0042
:100750000440034207D103433370BFF35F8F2C6023
:100760008CF3108870BD100001F078FC2C0100D0D3
:10077000F8B54746CE46884680B5EFF3108C72B682
:10078000214D2C68002CFCD0BFF35F8F9A422CD8EF
:10079000D4080727055D061901241740BC402C42E8
:1007A0001FD007210127894609E0D408055D0619F5
:1007B0004C4639001440A1400C00294211D00132AE
:1007C0009342F2D201204042BFF35F8F00220E4BD2
:1007D0001A608CF3108800280FDBC0BCB946B04605
:1007E000F8BD2C4310003470EEE7BFF35F8F002399
:1007F0002B608CF31088012040424346002BECD044
:10080000089801F02BFCC0462C0100D00021044BBD
:10081000044ABFF35F8F02C39342FAD17047C046C8
:10082000000100D0800100D0044A1078431CDBB2E4
:10083000172B00D9102313707047C046F492012083
:1008400000B5054B83B00100009318221F23034815
:10085000FFF78EFF03B000BDF04A0010209C01207E
:1008600001238340002904D0034A1360034A136024
:100870007047034A1360FBE780E200E000E100E01C
:1008800080E100E0024B10309B688000C058704748
:1008900000ED00E070B50D00EFF3108672B60F4A60
:1008A0001368002BFCD0BFF35F8F0D4B10309B689B
:1008B00084001B590B4A934203D09D4201D001F0A2
:1008C000E5FB074B9B681D51BFF35F8FBFF35F8F45
:1008D0000022024B1A6086F3108870BD240100D0FC
:1008E00000ED00E0CD010010F0B557464E46DE4663
:1008F0004546E0B585B0060002911700EFF3108B76
:1009000072B6674A1368002BFCD0BFF35F8F0025D7
:10091000644B5D579A46002D00DAA4E06B00624CF0
:1009200003935B199B009846A146C1444B4652462F
:100930009B79103613705D4BB2009B6801929958F9
:100940000B1B2F2B34D95A4B994200D0A4E0039BA8
:10095000584A9C46584B6544AD00635343460233A6
:100960006519E418554B0121043B1B1B1B055B0D4E
:1009700013436B80524BEF71AB80FF23AB71029B33
:10098000AB604B460B431900484B019A9B6899504A
:10099000BFF35F8FBFF35F8F0022414B1A608BF371
:1009A000108805B0F0BCBB46B246A946A046F0BDD3
:1009B00001200A008243D379BB422FD845464E46D8
:1009C000130040491B1B5B415943090D3A4B6353CC
:1009D0003A4B02356519043B5B1B1B05354D5B0D1E
:1009E0002B4373800426B446E0444444131F1B1B6E
:1009F0004C46A17102991B05A16049465B0D2B4332
:100A0000A380314BE77101431360BDE75800C01864
:100A100080002018C679BE422BD902000623D35687
:100A2000002BF3DA101D82462848804604267642C1
:100A3000B446E14450464E46361A3005400D8246D3
:100A400056461C48957106439680039A9446654421
:100A50001D4AAD00641922604246A371029BA28028
:100A6000E771A36090E701F011FB002553465D5745
:100A700054E7101D82469088400500158446404684
:100A8000D444664604302018301AE0260005400D94
:100A9000360230438046C9E701F0F8FA57E7C0460E
:100AA000240100D0E4A00120F892012000ED00E034
:100AB000CD01001000E0FFFF00A1FFFF28930120FF
:100AC00001BDFFFFAAAA00000148804701BD000048
:100AD000F0B5DE4657464E464546E0B50C0083B0BD
:100AE000EFF3108972B6584A1368002BFCD0BFF39D
:100AF0005F8F564B9A68030010339F00D559544AB4
:100B00009046954232D0A54243D0524EAA1B2F2A7E
:100B10002CD801228240924651464F4A1268114019
:100B2000019151464D4A1160BFF35F8FEFF305828B
:100B30009346002A33D101232A009A4393689C42AA
:100B400008D177E04B005B189B00F3189968A1422D
:100B50002AD01A00062151560029F3DA019B002BF6
:100B600019D052463E4B1A603B4B1A60374B9B687C
:100B7000DD51BFF35F8FBFF35F8F0022324B1A60EE
:100B800089F3108803B0F0BCBB46B246A946A04624
:100B9000F0BD1500EAE75246304B1A60E6E7934293
:100BA000C9D001F073FAC6E706215956002921DBA6
:100BB0004A005018800034188046A0689860E07998
:100BC000D871062020569871002824DBA488F01ADA
:100BD0006405241544440019E0240005400D240256
:100BE0002043988052181F4B9200B6181A7819703B
:100BF000B271B3E7594600290FD1FF3191711A49FB
:100C0000918018490A789A71184A9B1B5B415A4394
:100C1000120D0A70A2E71648E3E7164A1649D21ADF
:100C2000083A5002400D01439980144952080A4382
:100C3000DA8093E70621515613000029B8DA5A46A4
:100C4000002AEAD14546DCE7240100D000ED00E0AF
:100C5000CD010010F892012000E100E080E100E009
:100C600080E200E0E4A0012001BDFFFFAAAA00008D
:100C700001BD00003293012000F0FFFF00F8FFFFEC
:100C800070B5EFF3058101240443EFF3108C72B6C5
:100C9000214A1368002BFCD0BFF35F8F1F4B050068
:100CA0001F4AED1A6D416A43120D1E4D8900AE6850
:100CB00052B27658A6421CD00621595691421CD0F9
:100CC00012215956914222D01E215956914220D0CC
:100CD0002A2159560324914210D0134B19781A70C7
:100CE0008171BFF35F8F00220B4B1A608CF3108869
:100CF00070BDAB680D4C5C50EFE700246100091932
:100D000089005B18FF21997109499980E5E7012461
:100D1000F4E70224F2E7C046240100D0F892012053
:100D2000AAAA000000ED00E0E4A00120CD0100101F
:100D300001BDFFFF054B064A1360064A136053606E
:100D40009360D360136153619361704780808080AA
:100D500000E400E004E400E0024B9C4661448900AA
:100D6000016070474000003410B50400FFF75CFDDF
:100D700001002000FFF7F0FFFF232371BFF35F8F17
:100D800010BDC04610B50400FFF74EFD0100200065
:100D9000FFF7E2FFFF23A380BFF35F8F10BDC046C4
:100DA00010B504000120FFF74BFD044B9C46604446
:100DB00080002060BFF35F8F10BDC046400000344C
:100DC00083680B4810B584466144624409011201EE
:100DD0009A18591854684B6801209C4201D802D0D7
:100DE0000020C0B210BD12680B689A42F9D8F7E72C
:100DF000FFFFFF0F0A4B1968EFF3108072B60A6805
:100E0000002AFCD0BFF35F8F1B68BFF35F8F002207
:100E10001A6080F3108840BF002000217047C04650
:100E2000BCA00120F8B557464E464546DE46E0B523
:100E300099460CAB1C780DAB1B78060090469A4681
:100E40000768002C11D1BC7B002C42D065003B68A8
:100E50002D19033D59194B78BB73002B00D1FB733F
:100E600000238B704B700B7004E065003B682D19FC
:100E7000033D5919B2682A4B94464246E3181B01B8
:100E800063441A604A465A600A9A9A600B9ADA607A
:100E900000238B704B700B707B7B9B46002B2BD001
:100EA00022005946B8687B6898473A68002816D0EF
:100EB0005B4658465B005B445519033BA870D1184C
:100EC000D35C002B00D06B705B460C707B73A3452A
:100ED00013D0F0BCBB46B246A946A046F8BD5B465F
:100EE0005B005B44033BD3189C705119525D002A90
:100EF00000D05A705B460B707C7342464B46307D87
:100F000000F02EFB051E06D05346002B03D1210016
:100F1000306800F049FD0E9B002BDAD01D70D8E739
:100F2000FFFFFF0FF0B5DE4657464E46454600230D
:100F3000E0B58BB00893674B8200D45800239B46E2
:100F4000099000F093FA626806000F00EFF3108535
:100F500072B61368002BFCD0BFF35F8F23689C46EA
:100F60005B7B9946002B00D169E0A2685A4B904602
:100F70004B441B01984443461A685B6810001900F3
:100F8000801BB941002900DC63E0099800F0E8FA11
:100F900000230022984600230692079300239A46D6
:100FA0006368BFF35F8F5A461A6085F31088534613
:100FB000002B08D10028C4D10BB0F0BCBB46B24610
:100FC000A946A046F0BD089B414618024B4618436F
:100FD000D047626806000F00EFF3108572B6136801
:100FE000002BFCD0BFF35F8F002F50DB33003B435F
:100FF00002D02369002B61D12368D97B002907D057
:101000004A00521819688C4649466244033A5170A6
:101010009A7B002A01D14A469A734A46DA734B46B4
:10102000E168013BCA5C0132CA545B4623616368D4
:10103000BFF35F8F5A461A6085F3108881E700235B
:1010400000229846002306920793002300209A4628
:10105000A6E7002902D1002800D096E700216046CB
:1010600000F020FC43461A685B68069207934346EB
:101070009B689A464346DB689846E3684B44013BCD
:101080001B7808931B0203432361002088E7236930
:10109000002BB1D0069A079B921BBB41002B15DB9E
:1010A000594604910121039149460291414601911B
:1010B000514620000091FFF7B5FEB6E700F0D6F9E3
:1010C00032003B0012184B41002BE9DA0122034B9E
:1010D0005242E5E7A0A00120FFFFFF0FFFFFFF7FC7
:1010E00010B5144C6368002B04D00A211248FFF796
:1010F00033FE10BD2300114A1021206800F0ECFAE5
:10110000032000F0A7F9032000F094FA03200C4913
:1011100000F0E0F9FFF788FB0A4B9C460323237598
:10112000D0231B061B6860446375074B800060601A
:10113000DC60DAE740930120BCA00120C10D001063
:10114000250F001040000034A0A00120F0B54E464D
:101150004546DE465746E0B585B0019310AB1B7897
:101160000600039300239946984600927268EFF3B5
:10117000108B72B61368002BFCD0BFF35F8F3568FD
:10118000AC7B002C3DD067002B683F19033FDB1977
:101190005A78AA73002A00D1EA73B168474A8C468C
:1011A00000980199A21812016244106051600E99D2
:1011B00091600F99D16042469A705A701A706B7B99
:1011C0009A46002B67D022001900A8686B689847E0
:1011D0002A68002852D0534650465B005344D71922
:1011E000033BB870D118D35C002B00D07B70534602
:1011F0000C706B7354454FD0F3681B19013B187882
:1012000000E000207368BFF35F8F42461A608BF3E3
:101210001088002C4FD04B46002B08D100022043F1
:1012200005B0F0BCBB46B246A946A046F0BD039B44
:10123000002B3ED00E9B00200F999847030004001E
:101240000D000B4335D000290ADA009A019B121BCE
:10125000AB4100920193002B0ADB039B994685E783
:1012600000F004F924184D4100940195002DF4DAA2
:101270000123134C5B4200930194EEE753465B005D
:101280005344033BD3189C70D119D25D002A00D07F
:101290005A7053460B706C73307D009A019B00F0BE
:1012A0005FF981460028A7D02100306800F07CFB60
:1012B000A2E70020B4E701204042B1E7FFFFFF0FA3
:1012C000FFFFFF7FF0B5EFF30583CE46474680B5BD
:1012D00005000C0085B0002B12D02C4A0020536A68
:1012E0009C4203D8926A0130AA4204D305B0C0BC24
:1012F000B946B046F0BDE01A421E9041C0B2F5E7D3
:10130000234E02930193234B0200009330000B0005
:10131000FFF71CFF031EE0DD20BF7168EFF31087AD
:1013200072B60A68002AFCD0BFF35F8FDAB2944627
:101330003068427B62451DD0FF221A405100894629
:101340000168914488464946414403398978002917
:1013500013D0F1681B0A88464244013A1278DBB286
:101360009A420FD07368BFF35F8F00221A6087F331
:101370001088B2E7FF221A40EBE732699342F1D1BD
:101380003161EFE7614600F00FFBEBE700400540FD
:1013900040930120F50D0010F0B5EFF30582D6461D
:1013A0004F4646461000C0B51038EFF3108872B6AD
:1013B000214C2368002BFCD0BFF35F8F0123190061
:1013C00081401E4D1F006963AA461D4D29601D4DB9
:1013D0002E78AC463500C5402F402B4209D1BFF3D3
:1013E0005F8F276088F31088E0BCBA46B146A846F4
:1013F000F0BD5346144D5F6A83005D59AF420ED372
:10140000124A8E439B5862461670BFF35F8F0022CC
:10141000226088F31088002BE6D09847E4E70C4B55
:1014200092009C46624413681360BFF35F8F0023F1
:10143000236088F31088D7E7280100D000400540DA
:101440003C700540E6A00120C4A00120089B0120BB
:10145000D03F054010B50100024A0348FFF766F986
:1014600010BDC0460C4B0010E3A00120034B596A8D
:101470000A00986A596A8A42FAD1704700400540CA
:1014800070B504000D00124A536A1900966A536A37
:101490008B42FAD13000190024184D41AB4211D8CB
:1014A0000ED02B000A494A6A9A42FCD307D1084A57
:1014B00002E0516A994202D1916AA142F9D370BD0A
:1014C000A642EED9012301246442E5175B42E9E715
:1014D0000040054070B504000D00EFF3108672B6B1
:1014E0001A4A1368002BFCD0BFF35F8F002D1BD06E
:1014F0002000FFF7C7F9164981420AD02000FFF704
:10150000C9F901212000FFF7ABF90123A340114ADB
:101510001360114BA400E550BFF35F8F00220B4B0B
:101520001A6086F3108870BD0B4BA200D5500122C3
:10153000A2400A4920000B7893430B700449FFF73F
:10154000C7FA00212000FFF78BF9E5E7280100D05A
:101550009913001038600540089B0120E6A0012087
:10156000F0B54F46D6464646C0B507002C4C616ADA
:101570000D00A66A616AA942FAD18B4208D805D04B
:101580000120E0BCBA46B146A846F0BDB242F7D948
:10159000EFF3108A72B6234801680029FCD0BFF32C
:1015A0005F8F0125BD4020491D4C8846097889463A
:1015B0002943C9B28C46414660460870391D1B4814
:1015C000890065630A51B9000B50216A0020294245
:1015D00019D0616A0800A66A616A8142FAD18B4219
:1015E00019D801D1B24216D8CC4516D00C4B1F20C9
:1015F0001D625D6301230740BB400D4A1E38136026
:1016000043464A461A70BFF35F8F0022054B1A60AB
:101610008AF31088B5E70020F5E70120F3E7C0461C
:1016200000400540280100D0E6A00120C4A0012010
:1016300080E200E0EFF3108C72B60A490B68002BD1
:10164000FCD0BFF35F8F01238340074A0748136232
:1016500002789A430270BFF35F8F00230B608CF314
:1016600010887047280100D000400540E6A0012006
:1016700070B5050014001600002915D00C00002AD2
:1016800012D080686B689847296800280ED07300D4
:101690009B196200033B1219CB18033A9C708818FF
:1016A0008A5C002A15D10670200070BD63001B19EA
:1016B0007200033B9219CB18033A9E7088188A5C1B
:1016C000002A02D104703400EEE75A70047034002E
:1016D000EAE75A700670E7E730B583600023CCB2C2
:1016E00043730133047342608373C4730D00006855
:1016F000012C06D9421C0133DBB2137003329C4229
:10170000F9D1FF2129404B00591800234018033814
:10171000437030BDF8B5CE46474606000C0080B594
:10172000002907D04D0003686D18033D5A195778FA
:10173000002F04D12000C0BCB946B046F8BD7900E6
:10174000C91903398846434459788946002159709C
:10175000517073683A002100806898473368002808
:1017600014D042469A18947059195B5D002B00D032
:1017700053700F70270049463000FFF7CBFF390048
:1017800002003000FFF774FF0400D3E742464146F1
:101790005D19AF709A185B5C002B00D06B701470F1
:1017A000E9E7C046F0B557464546DE464E46E0B549
:1017B0000D006B0001685B19DF1E0400C85D83B07B
:1017C0000192CA19002850D043001B18033BCB18C4
:1017D0005E78B446002E1AD1019E002E42D0E67BE0
:1017E000002E04D073009B19CB18033B5D70A37BC4
:1017F000002B00D1A573E57300282FD1002353706F
:1018000003B0F0BCBB46B246A946A046F0BD72008C
:101810006244033A89184A78904600224A709146F9
:101820005A70010032002000FFF722FF4346824633
:10183000002B07D05B0021684344033BCB185A7848
:10184000002A16D1424651462000FFF711FF2168B9
:10185000019BCA19002BC2D10028CFD043001B180E
:10186000033BCB1800219970C8E7019B002BB6D130
:10187000C4E7500080180338091848788346484662
:101880004870587041462000FFF7F2FE59468046E6
:101890002000FFF73FFF414602002000FFF7E8FE6F
:1018A0008046CFE7F0B557464546DE464E46E0B5A2
:1018B00083B00191457B04006B0000685B19DF1E5B
:1018C000C15DC219002952D04B005B18033BC318FD
:1018D0005E78B446002E1CD1019E002E44D0E67BDB
:1018E000002E04D073009B19C318033B5D70A37BCB
:1018F000002B00D1A573E573002931D10023280006
:101900005370617303B0F0BCBB46B246A946A04613
:10191000F0BD72006244033A80184278904600227B
:10192000427091465A7020003200FFF7A1FE4346F4
:101930008246002B07D05B0021684344033BCB1851
:101940005A78002A17D1424651462000FFF790FEF0
:10195000019B01002068C219002BC0D10029CDD005
:101960004B005B18033BC31800209870C6E7019B2F
:10197000002BB4D1C2E7500080180338091848780A
:10198000834648464870587041462000FFF770FE75
:10199000594680462000FFF7BDFE41460200200068
:1019A000FFF766FE8046CEE770B5040000292CD014
:1019B000437B8B422ED00568480040180338281816
:1019C0008278002A21D053009B18033BEA5CEE1872
:1019D0008A4202D11BE0002A08D053009B18033B27
:1019E000EB185A788A42F6D142785A7000230122C5
:1019F000837043702000FFF7D5FE617B020020005A
:101A0000FFF736FE6073012000E0002070BD4378D0
:101A10003370EBE701221900FFF7C4FE6073012069
:101A2000F4E7C046F8B5CE464746040080B5062028
:101A30000E0000F023FA051E51D0524B5249E21815
:101A400053425A418023DB039C4692054F4B62442C
:101A50001A604F4B1A6010008B689843FBD1494BBA
:101A60008021E3185A4253414A4A5B004900995287
:101A7000062000F003FA3100C00000F067FBC30944
:101A800032D14022012190466162A362256BEB07AF
:101A900036D427008026E36A00232C3776013E43A4
:101AA00033600620256300F0E9F94146800000F02C
:101AB0004DFB236B05009846DB073BD46022E36AAD
:101AC0005A406E2313403360434623638023102221
:101AD0009B013B431A60304B23630323A36428001C
:101AE000C0BCB946B046F8BD2C4A93423FD900234A
:101AF0002B492C4A6162A362256B9046EB07C8D53F
:101B00002200C02330329B011343234A06201A606F
:101B1000666AA26AB601B61800F0B0F9224900F070
:101B200015FBB6020100300000F010FB0021FFF7AA
:101B3000A7FCAEE72200C02330329B011343164AB4
:101B400006201A60636AA26A9B019946914400F0DC
:101B500095F94B4614499B02994600F0F7FA0100AB
:101B6000484600F0F3FA0021FFF78AFCA6E77F223F
:101B70009901884610400130400819008044030054
:101B800082E7C0460080FCBF00C0004000E000408B
:101B900000F00040D4A0012001030000FEFF00007F
:101BA000FFFF0000C0FF3F004E0E000030B50C20CC
:101BB00083B000F0B9F9FEF7B1FD00280ED0994BC3
:101BC000994A1A605A609A60DA601A615A619A6199
:101BD000DA611A62954A5A6203B030BD944CA0672C
:101BE00000F0AAF90122934B1A60636C012BFCD11F
:101BF0000322914B1A608E4A936B012BFCD1013367
:101C000001218E4A8E480093043300F03DF90523EC
:101C10008C4A009301218C4800F036F98B4B5A68AE
:101C2000FF2A02D8802252005A6080227D4C824BCB
:101C300021691201854D1A60002907D0606900F002
:101C400085FA431C5800C0180338FDD2E0217F4BB1
:101C500002201A681140802252012A43116019683B
:101C6000484003210140116004219A681142FCD0D0
:101C70008022802192012A430901116080225200B2
:101C80005A60734B2361734B5968FF2900D85A601F
:101C90000321684A6F4B116002399A681142FCD0E7
:101CA000E0201A681040802252011A431060186820
:101CB0004840032101400220116066498A681042B1
:101CC000FCD0802292011343802212011A608022EC
:101CD000614B52004A606361604B5968FF2900D82C
:101CE0005A6080225E4BE16912015C4D1A60002946
:101CF00007D0606900F02AFA431C5800C018033866
:101D0000FDD2E02255490B681A4080235B012B432A
:101D10001A60802380229B012B4312011A608022CB
:101D2000414B52004A60E3614E4B5968FF2900D88D
:101D30005A6080224C4B216A12014A4D1A600029D8
:101D400007D0606900F002FA431C5800C01803383D
:101D5000FDD2E02243490B681A4080235B012B43EC
:101D60001A60802380229B012B4312011A6080237A
:101D700080225B004B602C4BD20223623B4B5968A4
:101D8000914200D25A608022394B616A1201374D6C
:101D90001A60002907D0606900F0D8F9431C580088
:101DA000C0180338FDD2E02230490B681A40802366
:101DB0005B012B431A60802380229B012B4312017D
:101DC0001A608023DB024B60184B6362294B5A6810
:101DD000FF2A02D8802252005A608022264BA16935
:101DE0001201244D1A60002907D0606900F0AEF995
:101DF000431C5800C0180338FDD2E0221D490B686F
:101E00001A4080235B012B431A60802380229B01B0
:101E10002B4312011A6080235B004B600E4BA361C1
:101E2000DAE6C046249C0120006CDC021BB70000EF
:101E3000008000403CB0004030B00040002F6859A6
:101E400000800240008C864700C002403080004085
:101E5000001BB7003C80004040597307548000408D
:101E600054B000406080004060B000406C80004092
:101E70006CB000404880004048B00040014B8000FA
:101E8000C0587047249C0120F8B5040021481D006B
:101E900017000E0000F05AF90100380000F056F962
:101EA000069B29041B0319432368002B20DB1A4BD4
:101EB0001A4DE21853425A4180235B019C4612039B
:101EC000174B62441A60174B1A601700AB689F43A8
:101ED000FBD1C022231D92011A4321232660A0605A
:101EE00013602368002BFCDA0823E1601360F8BD5F
:101EF0003F2322681340B342D9D1A3681B051B0DB1
:101F00008342D4D1EE22E368D20213408B42CED179
:101F1000EDE7C046001BB7000040FDBF00C0004019
:101F200000E0004000F000408023024A9B00034391
:101F3000D362704700800540AA23064A1B01136044
:101F40002F230549D360054B19605368002BFCDA39
:101F50007047C0460040024000B0FA0000600240F6
:101F60002C4B2D4A70B51A602C4A2D4B2D491A6006
:101F700014008B689C43FBD12B4D2C4EB54208D2EC
:101F8000013E761BB60808CD984723000134B342C2
:101F9000F9D1FFF70BFE264A214B1A60214A9368BC
:101FA000DB43DB01DD09002BF9D14022214B224C20
:101FB000224E9A675A671A67DA66B44208D22368D3
:101FC0002000002B20D00834FEF7DCFEB442F6D30C
:101FD0001B4E1C4CC022A168300000F0BFFBA66065
:101FE000FEF714FCFEF7A6FEFFF77AF8164C174E24
:101FF000B44208D2013E361BB60808CC98472B00E5
:1020000001359E42F9D170BD0834FEF7ADFEB442F1
:10201000D5D3DDE700E00040BFCDFBFEFE7F3C00F6
:1020200000F0004000C00040D8930120E893012058
:10203000FFFFFF0100F00140D0930120D893012061
:102040000000002000ED00E0E8930120F093012063
:1020500000BEFDE710B5FFF7FBFFC0460FB400B5AB
:10206000084883B000F0ACFC049B002B07D005A906
:102070001800019100F018F8034800F0A1FC0120BD
:10208000FFF7E6FF304B0010404B001010B5014841
:10209000FFF7E4FF444B001010B5002800D110BD3D
:1020A00000F042FCFBE7C04610B5094A0300146883
:1020B00084B0002C08D0012200910648524203A9A6
:1020C000A047012004B010BD00F07AFC0020F9E721
:1020D00098A001209920001001480421014B1847C5
:1020E0007093012009210010142310B501001888F5
:1020F00004331B88984710BD162310B501001888BB
:1021000002331B88984710BDF8B54746CE4680B5C8
:102110000F1E19D01423994604330400002501260C
:1021200098464B461888434621681B88984701C447
:10213000431E9841013540420640AF42F1D1300084
:10214000C0BCB946B046F8BD0126F8E7114A936F06
:102150009B0813D210665166002905D0FFE7FFE700
:10216000FFE7516F106F704704B5002801D00020C1
:10217000C04302F02DFC002104BDC046F0B5146E32
:10218000556E576F166FFFF7E5FF14665566576774
:102190001667F0BD000000D094464A4A926F92083C
:1021A000624601D228E0C046F0B5464E346E756EE8
:1021B000776F366F00F020F89446424A14665566F1
:1021C000576716676246F0BD94463E4A926F920882
:1021D000624601D254E0C046F0B53A4E346E756E98
:1021E000776F366F00F04CF89446364A14665566A1
:1021F000576716676246F0BD002B24DB11D000291B
:102200003EDA00B5C943404200D1013100F038F850
:10221000C943404200D10131DB43524200D1013376
:1022200000BD002AEBD1002801D1002905D00020F3
:10223000C90FC90701D1C043410800B502F0C0FB76
:102240000022002300BD00B500290ADBDB43524217
:1022500000D1013300F014F8C943404200D10131EC
:1022600000BDC943404200D10131DB43524200D19D
:10227000013300F005F8DB43524200D1013300BDC9
:10228000002923D1002B18D1002A0CD0BC460D4FB9
:1022900038667A6600210023FFE7FFE7FFE77A6FE1
:1022A000386F67467047002801D00748010000B525
:1022B00002F086FB0022002300BD02000B0000207C
:1022C00000217047000000D0FFFFFFFF002B00D06F
:1022D000BFE0130C28D1002AE7D080B4114F396633
:1022E0007A66FFE7FFE730B4040C7B6F396F1B049D
:1022F00023433B667A66FFE7FFE7FFE7C04684B209
:102300007B6F3D6F1B0423433B667A66FFE7FFE765
:10231000C04600232C042D0C7A6F386F00196941D8
:10232000B0BC7047000000D0F0B594460025140EF4
:1023300001D112020835140F01D112010435940F96
:1023400001D192000235D40F01D152000135D40BD6
:102350000134254F7C66254C3C660E0C93B2FFE79A
:10236000FFE7FFE73C6F6643360C7703BE467343D7
:10237000DF0B5B04C01AB941130C7343DB18C91A95
:10238000CE086643360CB64493B273431F0F1B014D
:10239000C01AB941130C73431F0B1B05C01AB94176
:1023A000860D8F023E436643360C092D24DB520A0C
:1023B0007243801A7703460A6643360C16235B1B6A
:1023C000DE40DF40BF1964466643821B7046043519
:1023D00006330100D940A840C01900D30131A24200
:1023E00006D20023F0BD0000000000D0FFFFFFFF79
:1023F000121B0130F3D3F1E709277F1BFE4064462F
:10240000A2B27243801A00D20139220C7243130C1B
:102410001204821A99410B007046043513370100EB
:10242000F940A840801900D30131002B02D1A2420B
:102430000AD2F0BD013000D30131121BFAD2013BA8
:10244000F8D1A24200D2F0BD013000D30131121BFD
:10245000F7E7F0B51C0C00D080E00CB400251C0A96
:1024600004D11B02160E3343120208351C0B04D193
:102470001B01160F3343120104359C0B04D19B0042
:10248000960F334392000235DC0B02D192185B4168
:1024900001351C00971864410134464F7C66464C58
:1024A0003C660E0CFFE7FFE7FFE7C0463C6F664364
:1024B000360C7703BE4697B27743C01B00D2013972
:1024C000C01B00D201399FB27743C91BC91B170C2F
:1024D00077437E04FF0B801BB941CE086643360C60
:1024E0000C2D33DBB644120B1F053A431B0B97B27E
:1024F0007743C01B00D201399FB27743C91B170C29
:1025000077433E043F0C801BB941860D8F023E434A
:10251000664329277F1BFE400C3D7746AF40BF191D
:1025200030BCA2B2ABB272437343801A9941220C01
:102530007243130C1204801A994102000B000137F8
:10254000001BA941F9D2781E0021F0BD0C277F1B8A
:10255000FE4077467F0BAF40FF19E0E700245D1C8B
:1025600007D0144F7D663966FFE7FFE7FFE7FFE717
:102570003C6F95B29EB265436643401BB141150C5A
:102580001E0C6543664336042F0C3E432D04401B4E
:10259000B141994204D202000B0020000021F0BD9D
:1025A00001D19042F7D3801A994101349942F2D374
:1025B000F6E70000000000D0FFFFFFFF132370B517
:1025C0001D78012D15D010DD1C48FFF795FD1C4C22
:1025D00001008022200000F0C1F8022D06D0194829
:1025E000FFF782FD184B186070BD154C174BA364A4
:1025F000F5E7164B124C23606360A360E360236130
:102600006361A361E36123626362A362E3622363A4
:102610006363A363E36323646364A364E364236584
:102620006365A365E36523666366A366E366236764
:102630006367A367E367A364D1E7C0465344000020
:10264000F09401204C330000B8A001205126001066
:1026500007B5604601880A0A0230DF2AFAD1C9B2FA
:10266000820804D3028840880004104300E0006818
:10267000014A5050039007BDF09401205143434359
:10268000C9188C46110C83B24B4310B4040C61433F
:1026900092B280B2504362431C041B0C001910BC60
:1026A00059411304120CC018514161447047000095
:1026B000132310B512481C78FFF71EFD0100012CF2
:1026C0000AD003DD80220F4800F048F80E48FFF7DB
:1026D0000BFD0E4B186010BD0A4C5422200000F078
:1026E0003DF80B4B6365A365E36523666366A366EC
:1026F000E36623676367A367E3672362E361E5E754
:1027000053460000F09501204C330000B8A0012092
:102710001527001007B5604601880A0A0230DF2A33
:10272000FAD1C9B2820804D3028840880004104359
:1027300000E00068014A5050039007BDF095012069
:1027400001480421014B1847809301200921001002
:10275000014B1B681847000080930120014B5B6808
:102760001847000080930120030010B508001100F5
:102770001B68984710BDC046F0B546464F46D64642
:10278000C0B5437D80460E001700002B46D0002ABE
:102790003FDD4B1E9946244B0125002400209A461C
:1027A0000DE04B461B5D0D3B5A425341325DDBB29F
:1027B0000A2A0BD02B00013401359F421ADD002C70
:1027C000EFD14346325D1B7D0A2AF3D1002BF1D1B4
:1027D000A04204DA4346211A1B6830189847434642
:1027E00050461B6802219847013428002B00013510
:1027F0009F42E4DC874204DD4346391A1B683018E7
:102800009847F619013E33780D3B5A4253414246F0
:102810001375E0BCBA46B146A846F0BD0368110086
:1028200030009847F5E7C046B04B0010F0B5DE46E3
:1028300057464E464546E0B585B017001C000600D9
:102840000D00FEF713FE0023304A12184B41002BF7
:1028500058DB2F4908008A4602F0DAF801906B1C19
:1028600003D1300002F064F80500002C25D1294B7B
:102870009846294B1C68002C15D0002F20D1274FDB
:1028800002E02469002C0ED02368002BF9D03B68AD
:10289000002B01D0A342F4D120002A003100C04710
:1028A0002469002CF0D1019B002B27D105B0F0BC8E
:1028B000BB46B246A946A046F0BD194B9846D8E79C
:1028C000164B994602ABDF1D0A239B4602E02469A2
:1028D000002CE8D02368002BF9D04B461B68002B56
:1028E00001D0A342F3D12A0031002000C0475B464B
:1028F0000122390020003B70C047E8E7504602F053
:1029000057F8D3E70122074B5242A2E740420F009B
:10291000D0930120792700108C9C0120949C0120E9
:1029200069270010FFFFFF7FF0B5CE46474680B510
:1029300083B06B460600DD1D2870FEF797FD00236F
:102940001A4A12184B41002B2BDB19490800884604
:1029500002F05EF8174B81461C68002C14D0164F0D
:1029600002E02469002C0FD02368002BF9D03B68CB
:10297000002B01D0A342F4D1200001222900FFF74F
:10298000FBFE2469002CEFD14B46002B05D1300013
:1029900003B0C0BCB946B046F0BD404602F008F8EE
:1029A000F5E70122054B5242CFE7C04640420F00F7
:1029B000D09301208C9C0120949C0120FFFFFF7F7D
:1029C00070B5040001F0B4FF0023010005000122EE
:1029D0002000FFF72BFF084B1C68002C06D0636813
:1029E000002B05D098472469002CF8D1280070BD31
:1029F0002469002CF3D1F9E78C9C01200A4A136862
:102A0000002B05D10CE01A001B691032002B07D0F7
:102A10009842F8D1002902D103691360016170471F
:102A20000029FCD01060FAE78C9C0120F0B50D1E47
:102A300015DD0E4B0D271A680D4B4519D318594259
:102A40004B410C495B005E5E20210478A64207D012
:102A500093691942FCD101301460A842F5D1F0BD50
:102A600093691942FCD11760F2E7C046DCA001204F
:102A70000080FCBFD4A0012030B504000D1E26DD6F
:102A8000002010211B4B013C1A689369194219D18F
:102A9000013093691942FCD1136823548542F4D163
:102AA000154B1B68002B0CD050239363516B183BC4
:102AB00034320B401100802252010A431360002877
:102AC00015D030BD0C4B1B68002BEDD1F7E70A4B3E
:102AD0001B68002B0BD050223821064B1B689A63D1
:102AE0005A6B343311408022520113431960032082
:102AF0004042E6E7DCA00120189C0120064B10B5FF
:102B00001B68002B06D00021044A12689163044A16
:102B10001068984710BDC046189C0120DCA0012019
:102B20001C9C01201D4BF0B51A68C64698461C4BEC
:102B30000E00D31859424B411A4F14331C000500A4
:102B400000B53B68002807D0002B11D0164B3D6024
:102B50001E6080BCB846F0BD002BF7D0906300210A
:102B60002000FDF77DFE20001049FDF7B1FFEDE7E5
:102B700020000E49FDF78EFE01212000FDF770FEBA
:102B80004346502238211B689A635A6B34331140F4
:102B90008022520113431960D8E7C046DCA001200F
:102BA0000080FCBF189C01201C9C0120FD2A001005
:102BB00070B50C4E0D001C003060002A03DB0221B2
:102BC0001000FDF775FD002C03DB02212000FDF74E
:102BD0006FFD29003068FEF725FF01210248FFF74D
:102BE0000DFF70BDDCA001209093012010B50248BC
:102BF00000F004F810BDC046B0A0012030B500259B
:102C000089B004000922002101A80095FFF7A0FD6A
:102C10000922002105A80495FFF79AFD4B236A4677
:102C20006846137004A90D2201F0BAFE152108228E
:102C300020006944FFF792FD09B030BD10B50121B5
:102C40000520FDF70DFE10BD10B500220021024841
:102C500000F05AF910BDC046B89C01208022024BFA
:102C60005202DA647047C04600201150F0B5C646E3
:102C700000B5060000F022F90C231B4DFF22AB67C4
:102C800005201A49FDF730FE40239846184C402293
:102C900000212000FFF75CFD43460127238321210B
:102CA0000023144A6770A260136063545F3161842B
:102CB00041462187053963540F4A10496360E26039
:102CC000A1620B606362E26201F0CAFE80239B0591
:102CD0002F64EB6490230A4A3000EA50FFF7BEFFEE
:102CE00080BCB846F0BDC04600001150B5040020BD
:102CF000989C01208400105000011050800010505A
:102D000010D001000B785B0602D14B78052B00D068
:102D100070478A78014B1A60FAE7C04600001150EC
:102D2000F0B5C64600B54B790C791B028878234371
:102D3000CC787F21A4070140C509A20F4F001400E1
:102D4000324E7A195201B2189070012068405070CA
:102D500000205B055B0DD0701383D4768046CA00DB
:102D6000012D33D02A488446880162448446B44405
:102D70006046826040461060002933D0254AC90071
:102D800090466246414451603F223F339343022CB8
:102D900000D15B0020487A1901685201B218D16055
:102DA0001E4ACB180360514053408022884652018E
:102DB000934228D84346A4061C4380237F197F01F1
:102DC0001B06F6191C4373681C6011E01448844606
:102DD000880162448446B444604682624046106082
:102DE000002909D100236D01761973600D4BF36042
:102DF000012080BCB846F0BD084AC9009046624632
:102E000041445162C0E7FFF741F9D3E7989C0120A4
:102E100084001050040010509CA0012000001050AD
:102E2000800010500001105010B501F019FE10BDC7
:102E300010B57F200C0020404000E409110000196B
:102E40001A00034B4001C01800F05EF8012010BDCD
:102E5000989C01207F22130010B50B400A420BD032
:102E6000C909802258004018064940014018120143
:102E7000002101F0E5FD10BD02220348C909521AE4
:102E80008266EEE7989C0120002011507F221000FE
:102E900010B508400A4200D110BD0023C909400006
:102EA000401804494001081800220349C37001F08A
:102EB000C7FDF1E7989C0120FFF7FFFF80220D4B33
:102EC000520410B51A600C4B0C491A6010008B6844
:102ED0009843FBD10A4C9C2200212000FFF738FCCC
:102EE0008022002152010748FFF732FC0923636763
:102EF00010BDC04600E0004000F0004000C00040AF
:102F0000000011500000105070B5837E04000D00C9
:102F10001600002B17D10023E38201332000A68284
:102F2000A376256101F05CFD002804D08021902368
:102F3000084A8902D150200001F02AFD002805D05E
:102F40000123237770BD01F073FDE4E7200001F059
:102F500067FDF7E700201150034B1878FF38431E38
:102F60009841C0B27047C046CC930120F8B5CE4618
:102F7000474680B52C4E050033780120FF2B03D047
:102F8000C0BCB946B046F8BD532200212748FFF720
:102F9000DFFB274C2000FDF7E7FE264B1C60264C8C
:102FA00020001430FDF7FCFE200001F077FC234BDD
:102FB000234F1C60234B9846002B04D0380000E0C0
:102FC00000BF214B1860424600243B78002A23D0E2
:102FD0001E4A90461C4A9146A34212D80FD143463E
:102FE000984701343B78E4B2A342F5D2280035700B
:102FF000FFF73CFE2800FFF721FE0120C0E700207C
:10300000BEE74A461268630094461B19DB0063441E
:10301000002BF4D01B68E3E700F0DCFE3B780020D7
:10302000002BADD1E2E7C046CC930120EC99012002
:10303000A4990120409A0120B0930120449A0120D4
:10304000E0A00120000000000C970120D53D0010F9
:10305000F0B5DE4657464E464546E0B58BB001F02A
:103060002FFB002800D10EE1C84BC94F9A46C94D2D
:1030700007AC3E687269EFF3108172B61368002BDB
:10308000FCD0BFF35F8FB1613000210001F072FB13
:103090007269B369BFF35F8F0021116083F31088F9
:1030A000002800D1EFE06378082BE2D852469B005D
:1030B000D3589F466368002BDBD0A0689847D8E7B9
:1030C0007F222179B34E0A4050003618B046CB0912
:1030D0009844404601263030C378B343C370C37868
:1030E0000336B343C370002A00D1F1E04346AA4A35
:1030F000DB7C002A06D0A94A1278934200D261E113
:103100009B1ADBB2002B00D0BDE0A54E627920787F
:10311000A368B047ADE701222B78012113432B7040
:1031200033230420EA5C8A43EA54EA5C8243EA548B
:103130000133EA5C8A43EA54EA5C8243EA54237826
:1031400000209B4600F0EAFC602223791A40602AA6
:103150000DD0402A00D1C1E0DB06DB0E012B00D1EF
:103160003BE1022B00D1D6E0002B00D1C5E0207856
:103170000021FFF76FFE80212078FFF76BFE78E7D4
:10318000844E3378DB0700D473E7864B002B00D1E5
:103190006FE7FDF717F96CE77E4E3378DB0700D455
:1031A00067E7814B002B00D163E730780007C00F41
:1031B000FDF700F95DE72378774A9846774B0026BC
:1031C00099461B78002A00D17AE0784A9346B342A8
:1031D00060D819D1764B404698474B4601361B784C
:1031E000F6B2B342F3D26B4E532200213000FFF708
:1031F000AFFA1022FF21F01CFFF7AAFA30002022BC
:10320000FF211330FFF7A4FA00F07EFC694B002B7E
:1032100000D12EE7FDF7C6F82BE723785E4A9846E3
:103220005E4B002699461B78002A1FD05F4A9346C2
:103230009E423AD321D15E4B404698474B460136D9
:103240001B78F6B2B342F3D2524E53220021300023
:10325000FFF77EFA1022FF21F01CFFF779FA300009
:103260002022FF211330FFF773FA07E0404600F0F9
:10327000BBFD4B461B78002BE6D0464E00F044FCCD
:103280002379B370F5E60BB0F0BCBB46B246A94655
:10329000A046F0BD5A461268730094469B19DB00A5
:1032A0006344002BB0D05B6895E75A461268730000
:1032B00094469B19DB006344002BDED05B68BBE7C0
:1032C000404600F091FD4B461B78002B9CD18AE7CD
:1032D00062792078A36800F035FCCAE636480028F9
:1032E00000D144E700F01AFC0121584608AA00E08A
:1032F00000BF002800D0BCE639E7202A00D1A1E0B9
:10330000002A00D033E76379092B00D92FE72B4A35
:103310009B00D3589F467023217A0B4200D026E7AA
:103320000F330B405B00E818CE0900931A4B80194D
:10333000C07C002B06D0194B1B78984200D2A4E029
:10334000C01AC0B2002800D099E0002A00D057E18E
:103350001B4B984663791A00994602239A43012A27
:1033600000D151E14B46002B00D000E7009B06AA9C
:10337000EB189E193036F37802329B07DB0F13806F
:103380005846022308A900F061FB72E61C4C0010AD
:10339000449A0120EC99012000000000E0A00120E7
:1033A0009D3F0010C5030010B50300100C970120CD
:1033B000E93D0010A503001000000000404C001083
:1033C000A84C00105A00D318BB4ADB001268D3186F
:1033D000002B00D157E71E6998E6237A0F2B00D9FE
:1033E000C5E6B64AEB18DB78002A05D0B44A127855
:1033F000934263D39B1ADBB2002B00D0B7E6B148EF
:10340000B14E00F08BFB01215846F36808AA98479B
:10341000002800D02DE66022160023791E401A42B3
:1034200000D0A4E663790A3B012B00D99FE600F0A7
:1034300075FB63790A2B00D135E1584608A900F0E5
:10344000EDFA16E6237A0F2B00D990E69B4AEB188B
:10345000DB78002A06D09A4A1278934200D2F6E02E
:103460009B1ADBB2002B00D081E69648964E00F006
:1034700055FB01215846F36808AA984739E7002A06
:1034800000D074E60023984664E7430098468A4BD0
:1034900040441B68C00098468044002A00D159E788
:1034A0004346002B00D162E6D86800F037FB434664
:1034B00001215846DB6808AA98471AE77E4A5E0051
:1034C000F3181668DB00F618002E00D14FE6F068FE
:1034D00097E7A37900931A006B789A4207D06B782C
:1034E000002B00D056E1009B002B00D0F8E0009BA1
:1034F000584608A96B7000F091FABAE56B7806AAF5
:10350000023213705846012308A900F09FFAB0E573
:10351000E088030AC0B20F2B00D928E66B499A0055
:103520008A58974608A800F0FFFA5846A179FFF795
:103530008BFB02222B7813432B709AE5E388012B37
:1035400000D014E608222B785846934308A92B7024
:1035500000F064FA8DE50220297806AB9A1C8B06F0
:103560008908DB0F01400B4309E7E388012B00D0FA
:10357000FDE508222B785846134308A92B7000F06C
:103580004DFA76E5524B002B00D1F0E500E000BF8C
:10359000021E00D1EBE5D37891781B020B4358460D
:1035A00008A900F053FAA4E64A4B002B00D1DEE54F
:1035B00000E000BF021E00D1D9E55846137808A9E3
:1035C00000F044FA95E62189FCF70CFF021EF4D1C5
:1035D000CDE5022B00D11BE13F4B002B00D1C6E50E
:1035E00000E000BF0200002A00D1C0E5D3E7FCF7ED
:1035F000F1FE1223020008A9584600F027FA78E6E7
:10360000314B3048984650E7E288002A09D14B46B2
:10361000012B27D0009BEB189E193036F3789B07BF
:1036200034D54346002B00D123E5D86800F076FA64
:1036300043460121DB6808AA58469847002000F05D
:103640006DFA3423EB5CDB0700D512E5F5E61A4A88
:103650005E00F3181668DB00F618002E00D186E530
:10366000F06804E7009BEB189E193036F3789B074F
:10367000D7D51A4B1878FFF709FC0222F378934349
:103680004A46F370F3789343F370CAE7134B187804
:10369000FFF7E0FB0222F37813430122F370F37883
:1036A0001343F370BDE706AB9A1C5846012308A9E3
:1036B000167000F0CBF9DCE40C970120000000004C
:1036C000E0A00120613E0010A84C0010684C0010E2
:1036D000000000000000000000000000CC9301206A
:1036E000581EC0B2FCF77AFE002800D13FE54378AF
:1036F000022B00D03BE50121C279931152110B40FE
:103700000A4012015B0113432A782F318A43134385
:103710002B700923994681444E46C37882781B0258
:103720001343C3180293029BB34200D8ADE00122B9
:10373000737803920B2B03D1F37803933378F61845
:103740007378042B00D012E50021029B554A9B1B85
:103750009BB20193544B884604931B788A4268D0ED
:1037600032000E0090469E4256D300D0FFE44F4BED
:10377000019A4146584691469847082803D94B4636
:10378000834200D388E0049B01361B78F6B2B34233
:10379000E9D2ECE45846FFF747FBAB78414A019386
:1037A000414B002699461B78002A0ED0404A90468D
:1037B0009E4223D31FD13F4B584698474B46013674
:1037C0001B78F6B2B342F3D206E0584600F00CFB89
:1037D0004B461B78002B0ED1532200212800FEF708
:1037E000B7FF1022FF21E81CFEF7B2FF2022FF21C5
:1037F0003148FEF7ADFF019BAB7074E642461823DB
:103800001268734394466344002BF4D05B68D3E79B
:10381000FCF7E4FD0200E6E6254B1B680593182340
:10382000059A734394466344002B00D19FE49B6840
:103830009EE731005846019A00F0E0FA81460828D8
:1038400000D894E4019B834200D290E400224046D9
:103850000AE0B378D318DBB2EB18D978FF2900D08F
:1038600085E40132D870D2B2039B9A42F1D18046EE
:10387000030031004A46104800F062FF049B4E44AA
:103880001B78434500D34EE771E40C4B002B00D16D
:103890002DE6FCF77FFD2AE643468146B0461E0032
:1038A000D4E7C04600000000E0A00120FD3D00106C
:1038B0000C970120E93D0010FF99012095030010AD
:1038C000F8B557464E46DE4645460C00E0B51600B4
:1038D0001F00002A3CD0702398461E4B00259B46B3
:1038E0001D4B9A461AE05B461B78200099465346CA
:1038F000997800F0E9FE00281CD021004846FFF727
:103900000FFA002816D0A378DA09012A19D00A9AEA
:10391000013513702378E418B54219DA6378052B62
:1039200008D1E3789B079B0FBB4203D14246A378A3
:103930001A42D8D00020F0BCBB46B246A946A046E9
:10394000F8BD0B9A013513702378E418B542E5DB16
:103950000120F0E7CC930120EC9901207F2070B585
:1039600008400F4C4000CD09241864193034E57824
:103970000020ED0700D570BD0126E57809483543E4
:103980000078E570FFF754FA0028F4D10122E378BB
:103990009343E370E37803329343E370EBE7C0466D
:1039A000EC990120CC9301207F22CB090A400449E5
:1039B00052008918C9183031C878C007C00F704745
:1039C000EC9901207F2310B50B400B4C5B00E418F1
:1039D000CA09A4183034E3789B0700D510BD074B03
:1039E0001878FFF737FA0222E37813430122E370D5
:1039F000E3781343E370F1E7EC990120CC930120C5
:103A00007F22CB090A40044952008918C918303175
:103A1000C8788007C00F7047EC99012070B50A4E36
:103A20000500300008220C00FEF798FE00237F21DD
:103A3000F3602278B36091425B412800D9010022F3
:103A40000023FFF78BFF70BD10970120F8B5CE461D
:103A5000474691462A4E80B50822070030000D00E7
:103A60009846FEF77BFE4B46B3600023F381EC796A
:103A7000A97924020C43231C444500D943469AB239
:103A80009046B381002C13D0002A1FD04B46002B48
:103A900034D0131C402A1FD89BB2984633787F2B12
:103AA00020D80021174A43463800FFF757FF09E0A6
:103AB0007F222B7838009A42644100230022E101E2
:103AC000FFF74CFFC0BCB946B046F8BD33787F2B3A
:103AD00011D980210022E6E740239BB29846337833
:103AE0007F2BDED9074C424649462000FEF736FEC2
:103AF00080212200D7E700210022D4E70020E1E75F
:103B000010970120AC99012010B514220021024821
:103B1000FEF71EFE10BDC04610970120014B186134
:103B20007047C0461097012010B5054C01000822CF
:103B30002000FEF713FE0023A360E36010BDC04623
:103B400010970120F8B53B4C1D0023780600DA09D8
:103B5000C9098A4213D00020002D00D0F8BD364B91
:103B6000002B03D021003000FFF7CCF82369002B95
:103B700044D022000321300098470120EEE77F2B3C
:103B800006D8A068002837D02A002C49FEF7E6FDA9
:103B9000A368E28959195219E38892B2E281A160BF
:103BA000934214D03F2D12D9A589A81A071C80B2C0
:103BB00040282FD82378BFB27F2B2DD80021AA42CE
:103BC00035D01E4A3B003000FFF7C8FEC6E7236928
:103BD000002B05D0220002213000984700280FD08A
:103BE0007F220021237830009A424941002300229D
:103BF000C901FFF7B3FEB1E70020AFE70120ADE751
:103C000000213000FFF726F930008021FFF722F96C
:103C10000120A3E74027CDE7AA4207D0074C3A008E
:103C20002000FEF79BFD80212200CBE780210022AF
:103C3000C8E7C04610970120052D0010AC9901205F
:103C4000F0B54746CE4680B5364C0600E18AA368FB
:103C500049BA89B2984687B0002904D01800FEF707
:103C600075FA0104090C2369257D1A0AA36B2D0638
:103C7000180099461543FEF769FA2DBA0A00434623
:103C800041194D465B1B8025274F607BAD00AB4241
:103C900000D92B0000933B00FCF7AAFC051E1FDB9C
:103CA00000280BD02E2283B2A15C30003A00FFF72F
:103CB00055FE07B0C0BCB946B046F0BD2E23E75C48
:103CC00003AC082200212000FEF742FD072300215B
:103CD0002000267063702771059500F091FEE8E7DB
:103CE000124B0022A3873E2330210220E254123BD4
:103CF0000132E254A268A36B6054D31AA362002A73
:103D0000D7D0002BD5D0237BDB0905D02E23300064
:103D1000E15CFFF757FECCE72F233000E15CFFF7B3
:103D200051FEC6E76499012064970120023A000021
:103D30001E4B70B505001E4C002B04D0607BFCF7B9
:103D40006BFC002810D0A26BA3689B1A8022920003
:103D5000934207D82F222800A15C9BB2154AFFF797
:103D6000FDFD70BD1300F5E7134B0122A3873E2331
:103D70003021E054123BE254A268A36B0230D31A04
:103D8000A3626054002AECD0002BEAD0237BDB092D
:103D900005D02E232800E15CFFF714FEE1E72F2376
:103DA0002800E15CFFF70EFEDBE7C04619060010B5
:103DB00064990120649701200727000010B53C2476
:103DC000034801553D2142543E228354012010BD39
:103DD0006499012010B5402200210248FEF7B8FC8A
:103DE00010BDC0466499012010B540220021024850
:103DF000FEF7AEFC10BDC0466499012030B54B798A
:103E0000040083B0082B02D18B79062B02D000204E
:103E100003B030BDCB79502BF9D1162AF7D98A7867
:103E20000E4D233BEA540B780222C9182B002E3387
:103E300001932B002F3300930223FFF741FD00284D
:103E4000E5D030230022EA54013BE95C2A0020003F
:103E5000103BFFF783FD1720DAE7C0466499012085
:103E600070B50500140082B001292AD17F23127891
:103E70001340022B28D0602300201340202B21D197
:103E80006378FE2B50D0FF2B1CD1E378A2781B0265
:103E9000134317D1E379A2791B02134312D13022C5
:103EA00000213C4B98540E3258639863988799547C
:103EB00028002100FFF7B2FD012003E02800FFF7F2
:103EC00081FD012002B070BD6378012BD3D1E3786E
:103ED000A2781B0200201343F4D1302221792D4C0B
:103EE000A35C042BEAD02E20205C884241D02F22F4
:103EF000A65C8E42E5D1002BE3D131002800FFF70C
:103F000053FD0028DDD131002800FFF779FD00289E
:103F1000D7D130230022E254013BE15C220028008B
:103F2000103BFFF71BFDCDE7E378A2781B0213439C
:103F30001BD1E379A2791B021343012B15D16A46E9
:103F4000D371154B002B12D0FCF70EFB00280CD0C0
:103F50000138C0B26B466A46D8712100012328009F
:103F60000732FFF773FD0120ACE70020AAE700202D
:103F7000F0E7022BA5D1A16BA3685B1AA362032310
:103F8000A35422000100203228000A33FFF7E6FC88
:103F900098E7C0466499012069050010F0B54546D0
:103FA00057464E46DE46E0B51F003023BB4C0500A9
:103FB000E65C984691B0012E0ED0032E60D0002E04
:103FC0001CD0022E00D18AE0012011B0F0BCBB460B
:103FD000B246A946A046F0BDE37B282B74D02A2B1D
:103FE00000D1BCE0A36B227B9C466744A763D20947
:103FF00000D1A5E0636B9F426ED2E5E7013BE35C35
:104000008B42E1D11F2F00D086E0A54B22689A4257
:1040100000D081E0A34B4246236263682C27636291
:104020000123E655A354E27BA368A6626363A663FB
:10403000282A00D1D3E02A2A00D175E2002B00D132
:10404000F3E0207BC00900D0EFE080229200934291
:1040500000D82EE2A3623023D53AFF3A0130A054B3
:104060002A3AE2540C33E35C002B03D18E4AA28738
:104070003E22A3542800FFF7A5FC3023E65CA0E70E
:104080002E23E35C8B429FD10D2F9DD1E37B282B08
:1040900000D141E22A2B00D136E2844B002B04D020
:1040A0002100607B0F3100E000BF00233026A355C4
:1040B0002F33E15C22002800103BFFF74FFC002863
:1040C00000D1FEE1A65D7CE7A36B9C46636B674471
:1040D000A7639F4200D27DE030230222E2542E26C5
:1040E0002800A15DFFF78CFC002800D06CE7A368D6
:1040F000A26B934202D9217BC9091CD19B1AA362EE
:1041000003223023E2542200023BE15C28002032EB
:10411000213BFFF723FC58E704223023E254023B03
:10412000E15C2800FFF74EFC2F232800E15CFFF73D
:1041300049FC002049E72800A15DFFF743FC43E765
:104140002100A38E607B5A4A0F31FCF7A7FA0028A2
:1041500000DABAE1A36B626B9342BDD28DE7E18ACC
:1041600049BA89B2002900D1ADE1A068FDF7EEFFA0
:104170000104090C2369267D1A0AA06B3606164332
:10418000FDF7E4FF36BA4A4B0A008119607B0097BD
:104190009846FCF743FA002800DADDE1874238D977
:1041A0003F1A002800D019E22F2307AEE35C082253
:1041B000002130009846FEF7CBFA07237370434680
:1041C0003570337130000021099700F019FC30235D
:1041D000E65CF6E6FFF734FD4346E65CF1E6E08A8E
:1041E00040BA80B2002B00D005E2002800D173E76E
:1041F00002232C22A3540022A2623032A3543A3369
:10420000E35C002B00D06AE7274AA2873E22A35432
:1042100065E7A36B9C46636B6744A7639F4200D32B
:104220005AE72800FFF784FD27E7667B252A03D895
:10423000204992008A5897463C22A25C002A50D11D
:104240001B4A90462100424630009BB20F31FCF7DA
:1042500025FA002845DB002800D07CE0A368002B6D
:1042600000D139E72C220121A154A26B01319B1A04
:104270003022A362A1540C32A25C002A03D10A4965
:10428000A1873E216254002B00D128E7237BDB0964
:1042900000D0A0E12F23E15CECE6C0466499012048
:1042A000555342435553425305200000000000007F
:1042B00064970120C04C001006AF3A00300007A9F7
:1042C000FCF78CF9079B002B03D03A88002A00D01A
:1042D000E9E13C23E35C002B03D1D84AA2873E22CC
:1042E000A3542C23012230210220E254A268A36BA4
:1042F0006054D31AA3620C31615C002903D1D04809
:10430000A0873E202154002A00D1E8E6BBE707AF92
:104310000C2200213800FEF71BFA02AA94460E2355
:1043200063441A00300006A99846FCF757F9069A2C
:10433000002ACED043461B88002BCAD0082112BACF
:10434000F970089202225BBA7B81BE4B3A729846A2
:1043500007CF07C30C20A368002B00D05EE1012229
:104360002C33E254A36B01325B42A3623023E2544C
:104370000C33E35C002B00D0B1E645E7B24B002BD9
:1043800000D16BE7E17C30008B07CA07DB0FD20F4F
:104390000909FCF72BF9002800D05FE73C23E35C18
:1043A000002B9ED1A54B0022A3873E23E25498E721
:1043B000A64B0120002B02D03000FCF72DF9A14BB9
:1043C0000322984601234340DBB2DB0513434246F8
:1043D00004201360BFE707AF082200213800FEF772
:1043E000B7F980235B427B708233BB70FB701D3357
:1043F0003B710822202109A8FEF7AAF910222021EA
:104400000BA8FEF7A5F9924B300009A90F930BAA50
:104410000FABFCF7ABF88B4B1A0098460BCF0BC2D7
:104420000BCF0BC20BCF0BC2242094E70F2398466F
:1044300042462D33E35C07AF1A403D23E35C9346CD
:104440009A463E239946E35C1222002138000393EA
:10445000FEF77EF9F0235A463B7043461340BB708B
:104460000A235246FB71039B3A737B73754B984644
:1044700007CF07C33A681A60BA889A80754B002B39
:1044800000D10BE1802241469200300000E000BFE5
:1044900000234A46A387A354984200DBDBE6667BF1
:1044A000636BCFE63000FCF78DF8002800D175E78C
:1044B000D4E62800634A9BB2FFF750FA002800D0E8
:1044C000DBE5002081E5002154E62C230220E654A0
:1044D0004646A368A26BA055991AA1623A30205CA7
:1044E000002803D1564EA6873E26A055002B56D055
:1044F000002954D0237BDB0900D1B3E02E23280010
:10450000E15CFFF75FFA25E6534B002B00D1CCE5C9
:10451000607B00E000BFC8E5504B002B00D1C4E534
:10452000607B00E000BFC0E5E08A40BA80B2002BAB
:1045300000D15AE6267BF60900D099E0002833D056
:10454000834200D28CE02800282A00D06AE6FFF7D8
:1045500077FB3023E65C34E5384AA36B0021A28761
:104560003E229C463026A154123A0131A154A26841
:104570006744D31B0131A763A362A155002A00D170
:10458000ADE5002B00D1AAE5237BDB0900D17EE05D
:104590002E232800E15CFFF715FAA65D11E5636B99
:1045A0009A4200D29BE597E501202C22A0540220DC
:1045B0000432A054A3620C32A25C002A08D1204825
:1045C000A0873E202254002B00D188E5267BF609E7
:1045D000002E00D14EE52E23E15C4BE5A26B0100DD
:1045E000944603041B0C63443A0040464144A363D1
:1045F00000F03EFAD8E5267BF6099FD10222A3629D
:104600004346E2543C23E255E35C002B00D031E505
:104610000B4B0022A3873E23E254D7E7984200D9F0
:1046200018002E226063A15C83B242462800FFF787
:1046300095F9002800D020E50020C6E4023A0000E9
:104640000520000064970120ED05001019060010F8
:1046500020202020000000000000000000000000DA
:104660000220A2E72F232800E15CFFF7ABF971E5F8
:104670000222A3622C2030232254E2540C33E35C48
:10468000002BA8D10C4AA2873E22A3549EE72F23D9
:104690002800E15CFFF796F9A65D92E44A461220F5
:1046A000A387A35457E60549013B1BBA12BA8846B3
:1046B00008200B604A604EE6052000006497012048
:1046C00010B5FEF749FC10BD10B5437904791B0203
:1046D00023435B055A0DC3789B079B0F022B05D024
:1046E000032B15D00020012B08D010BD02291CD0AF
:1046F0000020402393424041C0B2F6E702394B42CA
:1047000059410D4B9C46614491424041C0B2ECE797
:1047100002394B425941F023002049429B00194085
:10472000403191424041C0B2DFE7044BD3185A42B6
:104730005341D8B2D9E7C046FF03000000FEFFFF97
:104740008A1870B5914207D27F264C78052C04D088
:104750000C7809198A42F8D870BD34008D782C4045
:1047600064000419ED0963550C7809198A42ECD8E4
:10477000F2E7C04670B5040000690E00002803D0BF
:104780000121494200F034F925896089A288A9B243
:1047900083B285422CD3CD1AADB2002D2ED0AA42C1
:1047A00008D2914231D38B1A9BB263819A4203D8CB
:1047B0009B1A9BB29A42FBD9E28821685204520CA0
:1047C00053433000C918FDF7C9FF618901254B1C0F
:1047D0009BB2A288994214D9002352009B1A9BB223
:1047E00020696381002801D000F0E2F8280070BD44
:1047F0005500ED1A4D19ADB2002DD0D100256389B9
:104800009BB252009342EBDBE8E789188BB26381DD
:10481000CCE7C046F8B50400C0680E00002803D0FD
:104820000121494200F0E4F8258920896189A288A4
:10483000ADB283B28FB2884228D3DB1B9BB29A42BF
:1048400009D8E779FF0906D1E068002801D000F017
:10485000AFF83800F8BD2B00954203D39B1A9BB2EA
:104860009342FBD2E28821685204520C5343C81889
:104870003100FDF773FFA2886B1C9BB252009D4272
:1048800009D99B1A9BB201272381DDE75100C91B7F
:104890005B189BB2D3E79342F5DBF2E710B5040057
:1048A000C068002803D00121494200F0A1F8206926
:1048B000002803D00121494200F09AF80023E06863
:1048C00063812381002801D000F072F8206900285C
:1048D00001D000F06DF8012010BDC04610B51920C0
:1048E000FBF7FEFED0238022E1211B0692045A62D0
:1048F0000448054B0022186049020123FEF758F9CD
:1049000010BDC04600400340D8A00120D023802223
:104910001B069204002801D05A6170479A61FCE797
:1049200010B500F095F801235840C0B210BDC04644
:1049300010B583070AD00300032102E001330B42C4
:1049400005D01A78002AF9D1181A10BD0300196889
:104950000C4A0D4C8A188A4322420FD15968094AE1
:1049600004338A188A43224208D15968054A04331D
:104970008A188A432242F1D000E001331A78002AD3
:10498000FBD1E1E7FFFEFEFE80808080F8B5C046E7
:1049900001B40248844601BC604700BFB50900204D
:1049A00001B40248844601BC604700BF8D0200206C
:1049B00001B40248844601BC604700BFED010020FD
:1049C00001B40248844601BC604700BFBD0D002011
:1049D00001B40248844601BC604700BFBD0D002001
:1049E00001B40248844601BC604700BF8D09002025
:1049F00001B40248844601BC604700BF5D0100204D
:104A000001B40248844601BC604700BFED0B0020A2
:104A100001B40248844601BC604700BFC1000020C9
:104A200001B40248844601BC604700BF310B00203E
:104A300001B40248844601BC604700BFCD0A002093
:104A400001B40248844601BC604700BFD90A002077
:104A500001B40248844601BC604700BF5D0D0020E0
:104A600001B40248844601BC604700BF51030020E6
:104A700001B40248844601BC604700BFC10D00205C
:104A800054696E795553420054696E7955534220EA
:104A90004465766963650000313233343536373822
:104AA0003930313200000000090400001201000218
:104AB00000000040FECA02400001010203010000A4
:104AC00009022000010100803209040000020806EA
:104AD0005000070501024000000705810240000068
:104AE0004D6173732053746F72616765000000003D
:104AF0004E6F207370696E6C6F636B7320617265AB
:104B000020617661696C61626C6500004861726465
:104B10007761726520616C61726D20256420616C23
:104B2000726561647920636C61696D656400000081
:104B30000A2A2A2A2050414E4943202A2A2A0A00BA
:104B40000A0000004861726420617373657274002A
:104B500052656C6561736500626F6F74325F7732A6
:104B60003571303830000000312E352E3100000014
:104B70007069636F000000007573625F6D7363009E
:104B80004465632031392032303233000600525000
:104B9000BBFF3CB6704B001006005250E182887F8C
:104BA000584B001006005250D3F07542504B001085
:104BB0000D0A0000556E68616E646C656420495290
:104BC0005120307825780A006570202564202573EF
:104BD0002077617320616C72656164792061766110
:104BE000696C61626C65000043616E277420636FBD
:104BF0006E74696E75652078666572206F6E2069C7
:104C00006E61637469766520657020256420257364
:104C1000000000006F757400696E000072300010B3
:104C20001A320010B63100107230001098310010A6
:104C30008031001016310010C0300010B430001068
:104C4000563500103C3500106E3100106A350010EA
:104C50006E31001024350010103500106E31001038
:104C6000FC340010D23400106E310010EE3500100C
:104C7000D2350010C63500106E3100106E310010B4
:104C8000A8350010D23500106E3100106E310010C2
:104C90006E3100106E3100106E3100106E31001058
:104CA0006E31001084350010D53D0010E93D001034
:104CB000FD3D0010613E00109D3F0010000000000F
:104CC000A444001038420010384200102C44001058
:104CD00038420010384200103842001038420010AC
:104CE000384200103842001038420010384200109C
:104CF000384200103842001038420010384200108C
:104D00003842001038420010D643001038420010DC
:104D1000384200103842001038420010384200106B
:104D20003842001038420010B04300107C4300109D
:104D3000384200103842001038420010384200104B
:104D40003842001038420010384200100E43001064
:104D500038420010B84200104C454400090052503F
:104D600000000002584D00100800525012000000D0
:104D7000AC020010A0020010940200108C4B001036
:104D800088020010984B0010A44B00105C4D0010DE
:044D9000684D00105A
:104D9400F0B5C646150000B504001E000268EFF326
:104DA400108172B61368002BFCD0BFF35F8F04230D
:104DB400E356002B2DDB2268BFF35F8F00201060C9
:104DC40081F31088D0221206127852B290469A4289
:104DD40003D1002080BCB846F0BD00270BE0236857
:104DE400BFF35F8F1F6081F310882800310000F04B
:104DF400CFFE0028EDD12268EFF3108172B613685C
:104E0400002BFCD0BFF35F8F23797F2BE7D9434678
:104E140002E0D0231B061B6823712368BFF35F8F56
:104E240000221A6081F310880120D3E7F0B5C6464A
:104E340000B50D00040000F093FEFA2206000F00F6
:104E4400002328000021920000F082FE36184F4112
:104E5400002F2CDBD0231B061B68002598460BE093
:104E64002368BFF35F8F1D6081F310883000390021
:104E740000F08EFE002818D12268EFF3108172B67C
:104E84001368002BFCD0BFF35F8F23797F2BE7D906
:104E9400434623712368BFF35F8F00221A6081F3B6
:104EA4001088012080BCB846F0BD0020FAE7012636
:104EB400014F7642CEE7C046FFFFFF7F0268EFF363
:104EC400108172B61368002BFCD0BFF35F8FFF23F1
:104ED40003710368BFF35F8F00221A6081F31088A7
:104EE40040BF7047084810B50378002B0AD18023CF
:104EF4000649074A5B051C68CC5004339342FAD137
:104F04000123037010BDC046E2A00120189B0110CC
:104F14000001001010B5024B0133984710BDC04684
:104F2400189B0120034B1A68C0239B009343024A39
:104F3400136070470C8001400C900140054B1A68C7
:104F440080239B005340C02292001340024A136006
:104F54007047C0460C8001400C9001401423F0B50A
:104F6400D6464F4646469A46814618880433C0B50D
:104F740098460E001B88274914009847534607009B
:104F84001888434624491B889847534605001888C7
:104F9400434622491B8898478046FFF7A3FFB8473A
:104FA400A847FFF7CBFF002C1BD0C0212200082705
:104FB400022049053D008B6A1D4018420BD0002C8D
:104FC40009D0131B0D2B1FD84B461B78013C0B66D5
:104FD40001239C46E1442300002D0CD11343002BF4
:104FE400E8D1FFF79FFFC047FFF794FFE0BCBA4644
:104FF400B146A846F0BD002AF1D00B6E013A3370D9
:10500400130001362343EAE7002DD3D0002AD1D080
:10501400F3E7C046494600004558000046430000F7
:1050240000231C4A10B59360D3601B4A002193608F
:10503400D3601A4A1A489360D3601A4A9360D360C3
:10504400194A9360D360194A9360D360184A9360F5
:10505400D360184A9360D360174A9360D360174AA9
:105064009360D360164A9360D360164A9360D3600A
:10507400154A9360D360154A9360D360144A9360D1
:10508400D360F022920000F07BFD124B124A1A60AA
:1050940010BDC04600001050080010501000105001
:1050A400D89C0120180010502000105028001050E7
:1050B400300010503800105040001050480010507C
:1050C40050001050580010506000105068001050EC
:1050D400700010509CA0012080011050F0B557467C
:1050E400DE464E464546E0B5234B87B09F6D002F04
:1050F40023D0224B0024994601239846204B0126B5
:105104009A4604E001347600E4B2202C15D03E42E5
:10511400F8D04B469E65434665086D00A343ED18E1
:105124006D015544280000F0A1FB00280CD1013486
:10513400B743E4B27600002FE7D107B0F0BCBB461A
:10514400B246A946A046F0BDAB7808229B46EB8A3E
:10515400002103A8019300F013FD0723594602AA76
:105164005371019B117203A80121059300F0A6FB62
:10517400280000F013FBDAE7000011500030115052
:10518400989C01209823D14A70B5D55880232C00CF
:105194009B02102684B01C401D4278D0CC4BCD4CD1
:1051A4009A6ACD4B00261A603B23E35C022B00D1A4
:1051B400D7E07B23E35C022B00D11AE2BB23E35C40
:1051C400022B00D103E2FB23E35C022B00D1ECE1D0
:1051D4003C23FF33E35C022B00D1D1E17C23FF337A
:1051E400E35C022B00D1B6E1BC23FF33E35C022B6A
:1051F40000D19BE1FC23FF33E35C022B00D14FE1A0
:10520400B64BE35C022B00D136E1B54BE35C022BD9
:1052140000D11DE1B34BE35C022B00D104E1B24B9E
:10522400E35C022B00D1EBE0B04BE35C022B00D13A
:10523400D2E0AF4BE35C022B00D1B9E0AD4BE35CB1
:10524400022B00D19EE0AC4BE35C022B00D1E2E1E7
:10525400002E08D1A94B1B78002B04D18021A84A29
:1052640090338902D15001AE984B0C2200213000BA
:105274009C6C00F085FC03236405640D737030009E
:1052840002940121802400F019FB9E4EA402EB0637
:1052940063D480235B021D4214D0012223211C43CA
:1052A4008C4B5A54DA70C023974ADB00019302AB4B
:1052B40003CA03C3012101A800F000FB8022904B24
:1052C40092021A6580235B011D422FD18023DB01EA
:1052D4001D421AD180231B021D4204D1AC4200D0CE
:1052E400B3E104B070BD01AE0C22002130001C43B8
:1052F40000F046FC052301217370300000F0DEFA53
:1053040080227F4B12011A65E8E701AE0C220021CE
:1053140030001C4300F034FC04230121737030007E
:1053240000F0CCFA1022764B1A65D3E700221C4316
:10533400664B01AE1A60FFF773FE0C2200213000A9
:1053440000F01EFC012301217370300000F0B6FA56
:1053540080226B4B12031A65B8E7FFF7BFFE3400D7
:1053640097E73833E65C002E00D122E70233E25C93
:10537400002A00D11DE700222000E254203000F072
:105384003FFA16E7614BE35C002B00D15BE7EF23A8
:105394009B00E25C002A00D04FE1574BE35C022BF8
:1053A40000D060E75A4BE35C002B00D038E15AE7A9
:1053B400584BE35C002B00D140E7DF229200A15C54
:1053C4001E00002900D139E70023A354D8239B00F1
:1053D400E01800F015FA31E74F4BE35C002B00D1E5
:1053E40027E7CF229200A15C1E00002900D120E70C
:1053F4000023A354C8239B00E01800F001FA18E727
:10540400464BE35C002B00D10EE7BF229200A15C67
:105414001E00002900D107E70023A354B8239B00F2
:10542400E01800F0EDF9FFE63D4BE35C002B00D102
:10543400F5E6AF229200A15C1E00002900D1EEE641
:105444000023A354A8239B00E01800F0D9F9E6E652
:10545400344BE35C002B00D1DCE69F229200A15C7C
:105464001E00002900D1D5E60023A35498239B00F5
:10547400E01800F0C5F9CDE62B4BE35C002B00D11E
:10548400C3E68F229200A15C1E00002900D1BCE675
:105494000023A35488239B00E01800F0B1F9B4E67C
:1054A400F933FF33E35C002B00D1A9E6FE2252005E
:1054B400A15C1E00002900D1A2E620000023E130F7
:1054C400A354FF3000F09CF99AE6C0460000115046
:1054D40000400540989C0120909C01203B02000064
:1054E4007B020000BB020000FB0200003B03000043
:1054F4007B030000BB030000FB030000E1A00120CC
:10550400003011501000020000001050BA030000D7
:10551400FA0300007A0300003A030000FA020000D4
:10552400BA0200007A0200003A020000B933FF33E5
:10553400E35C002B00D15DE6DE225200A15C1E007C
:10554400002900D156E620000023A130A354FF30E7
:1055540000F056F94EE67933FF33E35C002B00D1BB
:1055640042E6BE225200A15C1E00002900D13BE6A7
:10557400200000236130A354FF3000F041F933E6EA
:105584003933FF33E35C002B00D127E69E2252001F
:10559400A15C1E00002900D120E620000023213058
:1055A400A354FF3000F02CF918E6F833E35C002B29
:1055B40000D10DE6FC22A15C1E00002900D107E603
:1055C40000232000A354E03000F01AF900E6B833B9
:1055D400E35C002B00D1F6E5BC22A15C1E0000298F
:1055E40000D1F0E500232000A354A03000F008F916
:1055F400E9E57833E35C002B00D1DFE57C22A15C94
:105604001E00002900D1D9E500232000A3546030F6
:1056140000F0F6F8D2E50F4BE35C002B00D117E65F
:10562400FF239B00E25C002A00D11CE60022E25426
:105634001C3BE01800F0E4F815E60022E254E823ED
:105644009B00E01800F0DCF8A7E62100024869405E
:1056540000F0A6FAFA030000B44B0010084A030055
:10566400126C0020920703D49A78D209012A00D040
:105674007047D87E023843425841C0B2F8E7C0466A
:105684000000115010B5FFF7E9FF00280CD00749BE
:10569400074B8C46074A9B6A126863449B1A002096
:1056A400C6229A424041C0B210BDC046E0FCFFFF92
:1056B40000400540909C0120F8B5028B838A0400C9
:1056C4000F00161C9A4200D91E1C8025B6B29B1BE3
:1056D400E2789BB2ED00A3823543002A02D09025E4
:1056E400AD01354301214A40E2706278002A09D0B5
:1056F400002B02D18023DB011D43002F00D02D0499
:105704002800F8BDE368B8019C4632006044216972
:1057140000F02EFA23699C46802366441B021D4335
:105724002661A38AE4E7C046836870B504001D6857
:10573400002900D02D0C6378AD05AD0D002B09D1E7
:10574400E38AEB18E382238BAB4201D90023A382C3
:10575400280070BDE36889019C462A0020696144E1
:1057640000F006FAE38AEB18E38223695B192361EC
:10577400E9E7C04610B50400836800211B68FFF701
:10578400D3FF63681B685B0002D5238B834200D080
:1057940010BD01212000FFF7C7FFF9E7002383763E
:1057A400436103617047C04610B58368002901D086
:1057B4001C682140002A11D08024E40011432242B5
:1057C4000CD01A6822420BD10A4A0A401A60FFE739
:1057D400FFE7FFE7FFE7FFE7FFE78368196010BD16
:1057E4007F2281780448CB091140044A9B009A58CF
:1057F40000F0D6F9FFFBFFFFC84B0010A89301206F
:10580400436870B5002180251E680400FFF754FF2B
:10581400134B6D011B6C05439B070FD5A3785B06E7
:105824000FD0104B1E4080239B0533436268002138
:10583400136020002A00FFF7B7FF70BDA378DB09CF
:10584400EFD0A38A002BECD001212000FFF734FF16
:10585400A023054ADB05324005431343E6E7C0466F
:1058640000001150FFFFFFAFFFFFFFDF70B5857E23
:105874000400002D13D0FFF77DFFA38A002B01D174
:10588400280070BD2000FFF7FDFE051E03D0012394
:1058940000252377F4E72000FFF7B2FFF0E77F222B
:1058A40081780448CB091140034A9B009A5800F0C0
:1058B40077F9C046E84B0010A8930120F0B543786F
:1058C400050085B0042B00D175E046D8022B00D129
:1058D40083E0032B55D1504E504A00243378002ADC
:1058E40000D192E04E4F03E00134E4B29C4214D85C
:1058F400A342F9D9396862008C461219D200624475
:10590400002AF1D05269002AEED0287869689047BD
:1059140001343378E4B29C42EAD9424B1A785207F4
:1059240047D504211A7801A88A431A7000210C2251
:1059340000F026F96A462B781371052353713A4B0C
:105944001C686269EFF3108172B61368002BFCD0F7
:10595400BFF35F8FA16101A920E0052B11D1314B69
:105964001A78D20725D504211A788A431A702E4B47
:105974001C686269EFF3108172B61368002B09D1B9
:10598400FBE7294B1C686269EFF3108172B6136858
:10599400002BFCD0BFF35F8FA1612900200000F031
:1059A400CFF86269A369BFF35F8F0021116083F3AD
:1059B400108805B0F0BD1B4B1A78D207F9D5042125
:1059C4001A780A431A70184B1C686269EFF3108145
:1059D40072B61368002BDDD1FBE70120114A117860
:1059E400814311701178994300231170042153707D
:1059F40013788B4313700C4B1C686269EFF31081AE
:105A040072B61368002BC5D1FBE700220132D2B273
:105A14009A42FBD981E7C046E0A0012000000000C3
:105A24000C970120EC990120449A012082B0EFF3F5
:105A3400108172B6134B1A6880239B015340C02215
:105A440092011340104A13600023FA220193019B30
:105A54009200934205DA019B01330193019B934227
:105A6400F9DBD023C0221B069868064B92011B6801
:105A74001340054A136081F310888007C00F02B0F9
:105A84007047C0460C8001400C9001407047C046EE
:105A9400F0B588420AD98B18984207D2531E002ABF
:105AA40003D0CA5CC254013BFBD2F0BD0F2A0BD811
:105AB4000500561E002AF8D00023CC5C1A00EC54D2
:105AC40001339642F9D1F0E703270D003E00054368
