:020000041000EA
:1000000000B50C4B00219960022159610A49196021
:100010000A490B480160002159600121996001BC27
:10002000002800D0004707480749086003C880F34C
:10003000088808470000001800031F00180200038A
:10004000F40000180001001008ED00E000000000BE
:1000500000000000000000000000000000000000A0
:100060000000000000000000000000000000000090
:100070000000000000000000000000000000000080
:100080000000000000000000000000000000000070
:100090000000000000000000000000000000000060
:1000A0000000000000000000000000000000000050
:1000B0000000000000000000000000000000000040
:1000C0000000000000000000000000000000000030
:1000D0000000000000000000000000000000000020
:1000E0000000000000000000000000000000000010
:1000F000000000000000000000000000EA224C5D4B
:1001000000200420F7010010C3010010C5010010F9
:10011000C1010010C1010010C1010010C101001097
:10012000C1010010C1010010C1010010C701001081
:10013000C1010010C1010010C9010010CB01001065
:10014000CD010010CD010010CD010010CD01001037
:10015000CD010010CD010010CD010010CD01001027
:10016000CD010010CD010010CD010010CD01001017
:10017000CD010010CD010010CD010010CD01001007
:10018000CD010010CD010010CD010010CD010010F7
:10019000CD010010CD010010CD010010CD010010E7
:1001A000CD010010CD010010CD010010CD010010D7
:1001B000CD010010CD010010CD010010CD010010C7
:1001C00000BE00BE00BE00BE00BE00BEEFF3058054
:1001D000103800BEF2EB887184880010A8880010E7
:1001E0003402001090A31AE700201F49086006C8D7
:1001F00081F3088810471D48006800282FD10DA4FE
:100200000ECC002902D000F012F8F9E71849194A7B
:10021000002000E001C19142FCD1174988471749ED
:1002200088471749884700BEFDE701C901C29A42C5
:10023000FBD37047A8880010C00000206011012087
:100240004899011000000420000004204899011082
:10025000001004200010042000000000704709482E
:1002600003F0A0FD0047000008ED00E0000000D012
:1002700060110120641E01202D2B0010B10300101D
:10028000E92A00105756000006005250ABB36053E5
:100290001083001006005250861C030220830010B9
:1002A000060052505422A29D28830010050052508F
:1002B000DE65F46848990110F8B5C04610B5064CE3
:1002C0002378002B07D1054B002B02D0044800E017
:1002D00000BF0123237010BD681201200000000040
:1002E00038730010044B10B5002B03D003490448A9
:1002F00000E000BF10BDC046000000006C120120ED
:1003000038730010024BFA2252001A607047C04640
:10031000500C0020024BFA2252001A607047C0466F
:10032000500C0020024BFA2252001A607047C0465F
:10033000500C0020024BFA2252001A607047C0464F
:10034000500C002010B501F009FE00290DDB12D081
:10035000FA229200002303F0B7FD0F4B1B68C01A6E
:100360000E4A126890420BD210BD0D4B0D4A3F2130
:100370000D4802F0BDFBFA21890003F067FDECE7B0
:100380009B18054A1360094C207806F0C5FD2378B8
:10039000012253402370E7E7381E0120500C002053
:1003A00038730010A4730010547300105F1E0120F6
:1003B00070B5182000F08AFCD024240680235B044A
:1003C00063621A2000F082FC8025ED04656219202A
:1003D00000F07CFC80239B046362A361A56106F0AE
:1003E00083FD002005F0F6F91D491E4806F010FEB9
:1003F00001210B2000F052FC01210A2000F04EFCEC
:100400000121132000F04AFC122000F05FFC802341
:10041000DB026362072000F059FC8023A362002105
:10042000032000F00FFB0021042000F00BFB04E090
:10043000D0231B068022D2029A6101200021404273
:1004400005F0D8FCFFF77EFFD0231B065B681B0678
:10045000EED5D0231B068022D2025A61EDE7C046BA
:1004600090D003000000044000487047E87300107B
:1004700000487047FC73001070B500280DD00328A9
:1004800024D88000124BC558280006F075FEC0B273
:100490001F2800D91F2000230EE00D4B19680D48BE
:1004A0000222023004F0CEFB012007E05A1CEC5C73
:1004B0005100084BCC52D3B29842F7D801304000DB
:1004C000C0239B0003430348038070BD0020FCE76A
:1004D000540C0020A0120120412803D94238800882
:1004E000023070470020FCE701207047F0B5CE468F
:1004F000474680B589B0894690461F0006AE154C28
:10050000330006CC06C302AC134D230007CD07C34E
:100510002A781A70114B0193300006F02DFE02006C
:100520003100484604F08EFB200006F025FE020054
:100530002100404604F086FB01A806F01DFE0200E3
:1005400001A9380004F07EFB09B0C0BCB946B04632
:10055000F0BDC046BC7300101C740010312E30007A
:1005600010B5012801D0012010BD06F0E3FC0028E1
:1005700001D10130F8E70020F6E70000024B0B60E4
:1005800080239B0013807047FFFF0000012070470D
:1005900070B50C0016001D0081290AD800F07AF908
:1005A00064020419A119049A280004F04BFB049872
:1005B00070BD049A0021180004F03EFB0498F7E790
:1005C00001207047F0B5CE4600B58EB00C00009209
:1005D0001D00149B002B00D10CE10800FFF77CFFED
:1005E0000600042804D8812C00D8F6E0149F02E10C
:1005F0008349002000F05CF9071E00DAEAE02022BF
:10060000002106A804F018FBB8B206A900F0B0F962
:10061000071EE8D106AB9A7EDB7E1B021A43914689
:10062000964200D097E0774A13685268134300D08F
:1006300091E0754B1B78002B03D1744B1B68002B8A
:1006400010D0724B1B68002B2BD16F4B1B78002BEB
:1006500000D180E002AA6E4B83CB83C21B6813607B
:10066000002749E0D0231B068022D2045A6100F003
:10067000E6F801F073FC002908DB0DD0FA229200A5
:10068000002303F021FC614B1860B4E0614B624A27
:100690003F21624802F02CFAFA21890003F0D6FBD0
:1006A000F1E701F05BFC002919DB1ED0FA22920071
:1006B000002303F009FC554B1B68C31AF92B00D823
:1006C00099E0514B01221A70504B00221A60D0233E
:1006D0001B06802252045A6100F0B7F8B5E74D4B73
:1006E0004D4A3F214D4802F003FAFA21890003F0F8
:1006F000ADFBE0E70137BFB20197149B103B9F426F
:1007000009D2E819EB5DFF2BF4D1102202A906F003
:10071000B9FC0028EED1019829184B1E1B788A1EBF
:1007200012781202134303390A7812041A43031F82
:10073000EB5C1B0613431800D917324B9C4618601C
:1007400059603A00002312184B4161460A604B6021
:1007500000222D4B1A70B1B2484600F0F5F800287F
:1007600000D140E72E4B1B78002B29D0D022120657
:100770008021C904516101225340294A1370214B41
:100780001A685B681100194300D12CE7149F002BF5
:100790001CD014973A002900224806F08DFD194913
:1007A0003A0000230E684F68B61A9F4132003B00A2
:1007B0000A604B603A4300D015E71B4B1A7012E7F2
:1007C000D02212068021C9049161D4E79742E0D972
:1007D0001700DEE701277F420DE000F05BF86402BE
:1007E0000019009B9C466044149A290004F02AFAE0
:1007F000149F00E0002738000EB080BCB946F0BD61
:100800002C74001060110120581E01208412012058
:1008100034740010387300104874001054730010C2
:10082000601E012000000440591E012010B5002365
:100830002022052105F0FEFC0120404210BDD023FE
:100840001B06802292009A617047D0231B068022EB
:1008500092005A61704710B50C1E15D0002816D0B2
:1008600008220100200006F0B5FC002301E001335E
:10087000DBB2072B06D8E118E25C002AF7D1203260
:100880000A70F4E7002010BD01204042FBE7012080
:100890004042F8E700487047640C00204300034AD8
:1008A000D05C0132D35C1B0218437047640E0020F9
:1008B00070B582B0050008006946FFF7CCFF002D37
:1008C0000ED02800FFF7EAFF00282DD0023DED02F0
:1008D00084231B029C466544194BED18402601E019
:1008E0001026184D0024A6420AD961016918082271
:1008F000684606F0C7FB002804D00134E4B2F2E7F2
:1009000001246442002C12DB64012C19A07EE47ED9
:1009100024020443012C0DD92000FFF7BFFF00285B
:100920000BD0200002B070BD01204042FAE7012048
:100930004042F7E701204042F4E701204042F1E75E
:10094000640C0020648E002010B50C00012809D929
:10095000064B984204D0A04206D0FFF79FFFF7E76E
:10096000002010BD0020FCE70120FAE7FFFF000097
:10097000F0B5C64600B586B006008846FFF78EFF84
:10098000002853D0023EF60284231B029C46664494
:100990002949761804AA294B03CB03C202AA284B83
:1009A00003CB03C2002300930193002501E001372C
:1009B0003DB2AFB23F2F36D86C013419082204A9DA
:1009C000200006F05FFB0028F1D0082202A92000D9
:1009D00006F058FB0028EAD008226946200006F0FD
:1009E00051FB0028E3D0A37EE27E12021343DED047
:1009F000237F627F12021343A27F12041343E27F1C
:100A000012061343D3D0E37A5B07D0D46B1C10D00B
:100A1000690171182022404604F014F9002006B044
:100A200080BCB846F0BD01256D42EFE70120404291
:100A3000F5E701204042F2E7640C002060740010EA
:100A40006C740010F0B5DE4657464E464546E0B59C
:100A500083B006000191012800D8B8E0841EE402AA
:100A60005E4B1C1984231B02E7182025202200213D
:100A7000380004F0E1F82E239A463B70584BE318F7
:100A80001D70584BE3181D70574BE3181D70574BE2
:100A9000E3181D70564BE3181D70564BE3181D707C
:100AA000554BE3181D70554BE3181D70544BE3185C
:100AB0001D70544BE3181D70534BE31810208346F0
:100AC0001870524BE31852221A70514BE3186D20E4
:100AD000814618704F4BE3180838804618704E4B0B
:100AE000E31843271F704D4BE31818704C4BE31865
:100AF0001F704C4BE318233018704B4BE3184946DA
:100B000019704A4BE31841461970494BE3181F709E
:100B1000484BE3181E70484BE318360A1E70474BCB
:100B2000E618323A0021300004F086F8534633705C
:100B3000434BE31856461E70424BE3181D70424B60
:100B4000E3181D70414BE3181D70414BE3181D70F5
:100B5000404BE3181D70404BE3181D703F4BE318EA
:100B60001D703F4BE3181D703E4BE3181D703E4B4C
:100B7000E3185D461D703D4BE31852221A703C4B42
:100B8000E3184D461D703B4BE31845461D703A4B2C
:100B9000E3181F70394BE3181D70394BE3181F70B1
:100BA000384BE31888201870374BE3184846187004
:100BB000364BE3181D70364BE3181F70354BE318A6
:100BC000019A1A70344B9C466444110A217003B098
:100BD000F0BCBB46B246A946A046F0BD640C00205E
:100BE00001840000028400000384000004840000EB
:100BF00005840000068400000784000008840000CB
:100C0000098400000A8400000B8400000E840000A8
:100C10000F84000010840000118400001284000082
:100C2000138400001684000017840000188400005C
:100C3000198400001A8400001B8400002084000036
:100C4000218400002284000023840000248400000A
:100C500025840000268400002784000028840000EA
:100C6000298400002A8400002B8400002E840000C8
:100C70002F840000308400003184000032840000A2
:100C8000338400003684000037840000388400007C
:100C9000398400003A8400003B84000010B58300D2
:100CA000084A944663441C6840226240C0241440B1
:100CB0008022520113431C60C000034B9C466044D9
:100CC000416010BD04C001400040014010B5012347
:100CD0008340D0221206936293610521FFF7DEFF65
:100CE00010BD0000034B1B6802201840431E9841B2
:100CF000C0B2704700C00640EFF3108072B6034BDD
:100D00001B68002BFBD0BFF35F8F70472C0100D016
:100D1000BFF35F8F024B00221A6080F31088704788
:100D20002C0100D0F8B506000C001500FFF7E4FF19
:100D3000E308F718F15C07222240012393400B429D
:100D400005D1DBB20B433B70FFF7E2FFF8BD21009A
:100D5000280001F067FFF0B583B006000191140090
:100D60001F00FFF7C9FF00E00134BC420CD8E308C4
:100D7000F518F35C0721214001228A401A42F3D181
:100D8000D2B21A432A7001E001246442FFF7C0FF87
:100D9000002C02DB200003B0F0BD019B002BF9D03A
:100DA000089801F03FFF0000002307E0054A9A1869
:100DB0009200BFF35F8F0021116001331F2BF5D923
:100DC0007047C04640000034054A1078431CDBB22F
:100DD0001370172B02D9130010221A707047C046E7
:100DE0006410012000B583B00100044B00931F2361
:100DF00018220348FFF7AFFF03B000BD787400105E
:100E00009C170120074B9B68103080001950BFF3DE
:100E10005F8FBFF35F8F044B0021196082F310884E
:100E20007047C04600ED00E0240100D010B5091A5B
:100E3000081F0A4B9C466144094A914208D8C307DF
:100E400006D440104005400D064B184380B210BD3B
:100E5000054B064AA321064801F04AFEFC070000A4
:100E6000FE0F000000E0FFFF94740010F076001009
:100E7000C474001010B5091A04394C08090B08D1C4
:100E80004905490D064A11430180064B234343801F
:100E900010BD054B054AAB21054801F029FEC046AF
:100EA00000F0FFFF00F8FFFF0C750010C476001083
:100EB000C474001001238340034A10681840431E85
:100EC0009841C0B27047C04600E100E0002904D05C
:100ED000034B1860034B18607047034B1860FBE727
:100EE00080E200E000E100E080E100E010B50123D5
:100EF00083401800FFF7EAFF10BD0000024B9B681B
:100F000010308000C058704700ED00E070B504005C
:100F10000D00EFF3108672B60C4B1B68002BFBD054
:100F2000BFF35F8F2000FFF7E9FF094B984201D024
:100F3000A84205D1320029002000FFF763FF70BDF1
:100F4000044B054A8621054801F0D2FD240100D05A
:100F5000CD0100101C75001024770010C47400101F
:100F6000F0B5DE4657464E464546E0B589B0814667
:100F700001911500EFF3108A72B6744B1B68002BB9
:100F8000FBD0BFF35F8F724B0027DF57002F40DB92
:100F90007C00E419A4006F4824180622A2566C4B6A
:100FA0001A706D4B9A684B4610339B00D358984685
:100FB0001E001B1A2F2B38D9684B98452FD105AE30
:100FC000674B33807B009B46D8198000614B984665
:100FD000404402306349FFF729FF7080624BB380C1
:100FE000FF23B371F571019B07935F44BF00474432
:100FF0000ECE0EC701231C43A0465246414648462A
:10100000FFF700FF09B0F0BCBB46B246A946A046B8
:10101000F0BD564B564AD721564801F069FD564B54
:10102000534ADE21534801F063FDC04340440C2184
:1010300002F00CFF002912D101239E43B346330076
:101040000026DA79AA4211D90621595600290CDB6B
:101050004A00521892001E003E4B9B18F1E7474B86
:10106000434AEA21434801F043FD1E00002E3AD0D6
:1010700005AB434A1A80813A5A800623F3560293FD
:10108000002B17DA3F4805AB9B469880029A9A716D
:10109000DD71019A0792301D2100FFF7C7FEB08075
:1010A000B7717B00DB199B002A4FFF185B4607CB0B
:1010B00007C7A2E77800C0198000264BC01804308B
:1010C000321DB388D90A1C2907D15B055915023195
:1010D00049005118FFF7AAFED5E72B4B2B4AB12147
:1010E000244801F005FD05AE1D4B33807B000293C3
:1010F000D8198000174A9046020042440392901C7F
:101100001849FFF793FE7080039A101D5946FFF7A8
:101110008DFEB0801E4B5A464146521A52415343EF
:101120001B0DB371F571019A0792029B9C466744AF
:10113000BF0047440ECE0EC7114B5A461380813B69
:10114000538001231C43A04657E7C046240100D02A
:101150005E1E01206810012000ED00E0CD010010AE
:1011600000A1FFFF9810012001BDFFFF5475001082
:101170000C770010C47400107C750010A47500106A
:101180000148000001BD000018760010FC76001038
:10119000AAAA0000F0B5CE46474680B583B0060047
:1011A0000D00EFF3108872B6564B1B68002BFBD076
:1011B000BFF35F8F544B9A6834001034A300D758A4
:1011C000524B9F4207D0AF4200D198E00197504B5D
:1011D000FB1A2F2B09D9424639003000FFF712FEC7
:1011E00003B0C0BCB946B046F0BD3000FFF762FEA8
:1011F000814600213000FFF779FEBFF35F8FEFF3E8
:101200000581002901D08C4211D10123019C9C430E
:101210000022A368AB4212D00622A256002A0DDBA0
:1012200053009B189B002200394CE418F1E736214B
:10123000384B394AFF31394801F05AFC2200AB42A1
:1012400056D106256557002D38DB6B005B199A00D7
:101250002F4B9B189A68A260DA79E27106229A569F
:10126000A2719B795BB2002B0FDA2D48A0806B0036
:101270005B199B00264AD3182A4A11789971157078
:1012800049463000FFF732FEA5E7201D6B005B19D1
:101290009B001F4A9B181A1D9B88D90A1C2907D13D
:1012A0005B055B15023359005118FFF7BFFDDDE701
:1012B0001D4B1E4AB121194801F01AFC002912D118
:1012C000002A0ED0FF239371194B9380154A13788F
:1012D000A371184B0E49641A644163431B0D1370CC
:1012E000CEE70A4FF2E7201D1349FFF7C3FDC7E71A
:1012F0006A21124B084AFF31084801F0F9FB034FFD
:1013000069E7C046240100D000ED00E0CD010010E7
:101310006810012030760010DC760010C4740010D4
:1013200001BD00005E1E012018760010FC76001042
:1013300001BDFFFFAAAA0000A210012064760010E0
:1013400070B5012101432E4BCB1A2F2B28D8EFF378
:101350000583002B2BD0EFF3108C72B6294A12684C
:10136000002AFBD0BFF35F8F274A0400244D641B83
:1013700064416243120D54B2244A92689B00D258D1
:101380008A421BD00022032A32D853009B189B00AC
:101390001B49CB189B795BB2A3421FD00132F2E705
:1013A000C7211B4B1B4A49001B4801F0A1FB92219E
:1013B0001A4B184AFF31184801F09AFB134A9268F9
:1013C0001749D150174B1A7882711C70BFF35F8F89
:1013D0000C4B00221A608CF3108870BD0D00530076
:1013E000991889006918FF268E710F4A8A80E9E7EB
:1013F000D1210E4B074A4900074801F079FBC0464E
:1014000068100120240100D0AAAA000000ED00E02D
:101410006C760010A8760010C4740010947600104A
:10142000CD0100105E1E012001BDFFFFA07600105F
:101430000022044B02E0044902C30132072AFAD910
:101440007047C04600E400E080808080024B9C46EC
:1014500061448900016070474000003410B5040009
:10146000FFF7B2FC01002000FFF7F0FFFF2323711C
:10147000BFF35F8F10BD10B50400FFF7A5FC01009E
:101480002000FFF7E3FFFF23237100236371BFF305
:101490005F8F10BD034B9C46614489000160BFF320
:1014A0005F8F70474000003410B504000120FFF743
:1014B00099FC01002000FFF7EDFF10BD70B505009D
:1014C0000C00080000F04AFE0949200000F08AFDE7
:1014D000FFF77AFC074B9C466044800068602C75DF
:1014E000D0231B061B786B75A400034BE55070BD21
:1014F0000118001040000034181C01200A4B1A6823
:10150000EFF3108172B61368002BFCD0BFF35F8F2E
:10151000054B1B68BFF35F8F00221A6081F31088B0
:1015200040BF002000217047341E012010B5002963
:1015300022D003681B7B99421ED8174B9C466144FE
:10154000090183689C4661440C684968002A19D0E7
:1015500003681B7B9A4215D883680F48844662440F
:1015600012019A1810685368020001208B4201D8BA
:101570000ED00020C0B210BD084B094A3C210948DA
:1015800001F0B6FA054B064A3C21064801F0B0FAD4
:10159000A242EFD8EDE7C046FFFFFF0F68780010CA
:1015A000847A00102878001010B500291ED0037B23
:1015B00099421BD84B005B18033B0468A446634464
:1015C000002919D0002A1DD0914221D0002A25D00F
:1015D000047BA24222D804685000801803382018E7
:1015E0008170197800291FD11A7010BD104B114A53
:1015F0006821114801F07CFA104B114A6F310E48F6
:1016000001F076FA0F4B0E4A70210B4801F070FA88
:101610000D4B0B4A7121084801F06AFA044B054A48
:101620006821054801F064FA41701A70DDE7C04690
:101630008C780010F07A0010A8780010FC78001068
:10164000CC7A0010087900101479001070B50600EB
:101650000D001400002914D0002A14D0806873688B
:101660009847002806D0220029003000FFF79CFF91
:10167000280007E02A0021003000FFF795FF200036
:1016800000E0100070BD0800FCE70000F0B583B07A
:101690000500009201930AAB1C780BAB1F78002C5D
:1016A00026D003685A7B944207D10123002B19D11D
:1016B000002C3BD1200003B0F0BD002C0CD01A7BD5
:1016C000944209D81A6863001B19033BD3189B780E
:1016D000002BEBD00123E9E73E4B3F4A68213F480E
:1016E00001F006FA3E4B3F4A67213F4801F000FAFD
:1016F00003689C7B002CDBD012D01A7B94420FD85D
:1017000062001219033A19688C4662445178997341
:10171000002900D1D9730023937053701370C7E769
:101720002C4B2D4A68212D4801F0E2F9002C3AD0CB
:101730002B681B7B9C4236D82C4BE3181B01AA68F4
:1017400094466344009A1A60019A5A60089A9A6013
:10175000099ADA602E68002C2BD030D0337B9C4263
:101760002DD863001B19033B326894466344002262
:101770009A705A701A70717B22003000FFF766FF72
:101780007073844200D095E7287D009A019B00F099
:1017900071FC061E01D0002F17D00C9B002B00D12E
:1017A00088E71E7086E7124B124A3C210E4801F072
:1017B0009FF9114B114AA521084801F099F9054BF1
:1017C000054A6821054801F093F92868210000F0D6
:1017D00089FEE2E78C780010F07A0010A8780010FB
:1017E0002C790010FC7A001028780010FFFFFF0F02
:1017F00068780010847A001024780010E07A0010D5
:10180000F0B5DE4657464E464546E0B58BB00990EA
:10181000002308938200B54BD658370052E0B44BF2
:10182000B44A3F21B44801F063F9B44BB44A3C21B7
:10183000B44801F05DF9002901D1002869D10021E7
:10184000404600F045FEA04219D12A686B68069216
:101850000793AB689846EB689A464346002B14D032
:10186000002C18D03B681B7B9C4214D8631EFA687E
:10187000D35C08931B0218433861002015E0A24B8B
:10188000A24A8E219F4801F033F9A14B9F4A922131
:101890009C4801F02DF9994B9E4A4121994801F04D
:1018A00027F900239A46984600207B68BFF35F8F94
:1018B00000221A6086F310884346002B32D100289C
:1018C00000D10CE100F04AFB02000B1EA7DB002058
:1018D0000021069007917868EFF3108672B60168D0
:1018E0000029FCD0BFF35F8F396888464C7B002C01
:1018F000D7D09AD0097B8C4297D8874965182D019B
:10190000B9688C46654428686968801A994100293D
:1019100091DD2A686B68099800F0ACFB00239A46B9
:101920009846C2E7089B1B0223439946514618007C
:10193000C04705000E007A68EFF3108B72B613688B
:1019400059424B41D9B2002BF9D1BFF35F8F002E22
:101950001EDB002E46DD3B69002B47D04B456DD189
:1019600000F0FCFA02000B1E6EDB52197341002BD3
:1019700070DB002B72DB0021049101310391029492
:1019800051460191414600913800FFF77FFE4CE03F
:101990003B69002BDDD04B4514D1069A079B521BA7
:1019A000B341002B14DB002B16DB00210491013125
:1019B0000391029451460191414600913800FFF78E
:1019C00065FE32E0554B514AA1214E4801F090F896
:1019D00001225242524BE6E7454B464A3F214648D8
:1019E00001F086F8002E01D1002DB4D13B68002C07
:1019F00050D05A7B944237D1012100294AD1DA7B59
:101A0000002A4DD19A7B002A03D1DA7B002A5AD1D1
:101A10009C73DC73002C5CD03B681B7B9C4258D8C9
:101A2000FA68013C135D0133135500233B617A686A
:101A3000BFF35F8F13608BF3108843E7374B334A54
:101A4000A421304801F054F8294B2A4A3F212A4862
:101A500001F04EF801225242314B8AE7244B254ACD
:101A60003F21254801F044F8002C0DD01A7B944208
:101A70000AD862001219033A1868844662449278C0
:101A8000002ABAD00121B8E7264B274A6821274807
:101A900001F02EF8264B274AF621244801F028F8B9
:101AA000002A0AD0197B8A4207D851008A18033AC3
:101AB00019688C4662445470A4E71A4B1A4A68218C
:101AC0001A4801F015F81C4B1A4AFB21174801F07F
:101AD0000FF80A4B0F4A41210A4801F009F80BB0F0
:101AE000F0BCBB46B246A946A046F0BD181C01207A
:101AF00038730010507A001054730010687800108A
:101B0000847A00102878001054790010687A001048
:101B10006C790010A87A0010FFFFFF0F7879001091
:101B2000FFFFFF7F8C780010F07A0010A87800107B
:101B3000B4790010BC7A0010D879001010B50C4BA5
:101B40005B68002B04D00A210A48FFF77FFC10BD18
:101B5000074C2300084A1021206800F0C9FB03202D
:101B600000F0F0F903212000FFF7A8FCEBE7C046E6
:101B7000B0100120341E01202D15001010B5064BA9
:101B80005B68002B01D0044810BD044B044A5E2161
:101B9000044800F0ADFFC046B0100120EC79001001
:101BA000907A001028780010F0B5DE4657464E4671
:101BB0004546E0B58BB0804616001F00149B9A4640
:101BC000159B994616AB1B789B461F2302AA944689
:101BD000634400221A702BE0002809D042461268A4
:101BE000127B904204D8421E4146C9688A5C41E09B
:101BF000404B414A4121414800F07AFF07984CE0B0
:101C0000361BAF41002F07DB002F11DA3C4B3D4A5A
:101C10003F213D4800F06CFF012676423B4FF3E741
:101C2000374B384A3F21384800F062FF002F4FDB26
:101C300043465A68EFF3108472B6136859424B4119
:101C4000D9B20791002BF8D1BFF35F8F1F3302AADF
:101C50009446634404930023039302934B460193F9
:101C60005346009332003B004046FFF70FFD031E32
:101C7000B2D1020041464968BFF35F8F00250D6075
:101C800084F31088002B29D01F2302A98C466344BB
:101C90001B78002BB2D112021043002B20D05B46E0
:101CA000002B1DD04946D04704000D0003000B4314
:101CB0001DD00029A4DB00F051F906000F1EAFDB98
:101CC00036196F41002FB1DA012676420F4FADE78A
:101CD0000B4B0C4A3F210C4800F00AFF0120404208
:101CE0000BB0F0BCBB46B246A946A046F0BD079873
:101CF000F6E7C04668780010A87A0010287800102F
:101D000038730010507A001054730010FFFFFF7FEB
:101D1000F8B50400002900D162E04268EFF31085B5
:101D200072B6136858424341D8B2002BF9D1BFF3C1
:101D30005F8FCBB22268567BB3421BD101200028B3
:101D400048D0206988422BD0090AC9B2002B2ED076
:101D50002068007B83422AD8581EE668305C88429F
:101D60002BD000206368BFF35F8F00221A6085F3D9
:101D70001088F8BD002B0DD0167BB3420AD85E0048
:101D8000F618033E1768BC466644B678002ED6D0D7
:101D90000120D4E7134B144A6821144800F0A8FE30
:101DA0002C21134B134AFF31134800F0A1FE134BB3
:101DB000134A4121104800F09BFE1900100000F06A
:101DC00091FB0028CED199210E4B0A4A49000A48BE
:101DD00000F08EFE23698B42C4D100232361C1E74A
:101DE0000020C6E78C780010F07A0010A878001068
:101DF000107A0010387A00102878001068780010E7
:101E0000A87A0010347A001070B584B005000C0078
:101E1000EFF30583002B1ED1FFF7B0FE00230293E2
:101E20000193224B00932A002300FFF7BDFE061EFC
:101E300023DD20BFFFF7A2FE3100FFF769FF1C4B37
:101E40005B6A9C422DD81A4A926AAA422CD29C42C2
:101E500025D0012026E0164B5B6A994209D8144A26
:101E6000926A824207D2994201D001201AE00020F2
:101E700018E0002016E0012014E00D4B5B6A9C4244
:101E800009D80B4A926AAA4207D29C4201D001208B
:101E900008E0002006E0002004E0012002E000202D
:101EA00000E0002004B070BD0120FBE7FD1400102D
:101EB0000040054070B5EFF305801038EFF3108C4B
:101EC00072B61A4B1B68002BFBD0BFF35F8F012249
:101ED0001300834016494B6316490B601649097875
:101EE0000C00C440224214D0114A546A8200134D9F
:101EF0005259944206D38200114C125999430E4B09
:101F0000197007E00A4A031D9B0099589950002256
:101F100000E00022BFF35F8F044B002119608CF3B7
:101F20001088002A00D0904770BDC046280100D01C
:101F3000004005403C700540611E01203C1E012010
:101F40008416012010B50100024A0348FEF7EAFE9C
:101F500010BDC046147B00105D1E0120044B5B6A5F
:101F6000034A906A1900536A9942F9D17047C046F2
:101F700000400540084B5B6A01E0074B5B6A8B42FF
:101F8000FBD301E0044B5B6A8B4203D1024B9B6A9B
:101F90008342F7D37047C0460040054070B5040047
:101FA0000D00FFF7DBFF02000B0020002900801866
:101FB00059418B4202D804D1824202D901204042C9
:101FC000C117002902DBFFF7D5FF70BD024B034AA2
:101FD0003F21034800F08CFD38730010C47B0010D3
:101FE0005473001070B504000D00EFF3108672B644
:101FF0001B4B1B68002BFBD0BFF35F8F002D1CD049
:102000002000FEF77BFF174B83420BD01900200006
:10201000FEF77CFF01212000FEF768FF0123A340AB
:10202000114A1360A400114BE550BFF35F8F0C4BB6
:1020300000221A6086F3108870BDA2000B4B0021AD
:10204000D1500122A2400A490B7893430B700549F5
:102050002000FFF79FF800212000FEF747FFE4E78C
:10206000280100D0B51E00103860054084160120FC
:10207000611E0120F0B5DE4600B584B004001500F5
:1020800001921E000293FFF769FF03958E4202D86A
:102090004ED185424CD9EFF3108B72B6274B1B689B
:1020A000002BFBD0BFF35F8F254A17780125A54091
:1020B000EBB23B431370234B5D63221D92000199E9
:1020C000D150A2002049029850501B6A2B4212D1D5
:1020D0001C4B1B6C2B4208D00020BFF35F8F174BAB
:1020E00000221A608BF3108823E0184B184AC52190
:1020F000184800F0FDFCFFF731FF8E4214D802D1E2
:10210000039B834210D80E4B1B78BB420ED00D4B65
:102110001D625D631F2004400123A3400E4A13602B
:10212000074B1F701E38D8E70020D6E70120D4E700
:10213000012004B080BCBB46F0BDC046280100D0E1
:10214000611E0120004005403C1E0120387B00102C
:10215000A87B00105C7B001080E200E0EFF3108CA5
:1021600072B60B4B1B68002BFBD0BFF35F8F0123B4
:102170008340084A136208490A789A430A70BFF3F9
:102180005F8F034B00221A608CF310887047C046A3
:10219000280100D000400540611E012010B5002933
:1021A0001ED0037B99421BD84B005B18033B04688D
:1021B000A4466344002919D0002A1DD0914221D0A1
:1021C000002A25D0047BA24222D80468500080183F
:1021D000033820188170197800291FD11A7010BD9A
:1021E000104B114A6821114800F082FC104B114A33
:1021F0006F310E4800F07CFC0F4B0E4A70210B48EB
:1022000000F076FC0D4B0B4A7121084800F070FC81
:10221000044B054A6821054800F06AFC41701A70B9
:10222000DDE7C0468C780010D47C0010A878001040
:10223000FC780010C07C00100879001014790010A0
:1022400070B506000D001400002914D0002A14D027
:10225000806873689847002806D022002900300063
:10226000FFF79CFF280007E02A0021003000FFF75D
:1022700095FF200000E0100070BD0800FCE70000A2
:1022800010B50023437301338373037BC3730123AE
:10229000027B9A4214D9002B0CD0027B934209D8BE
:1022A0005A00D218033A01688C4662440133DBB20B
:1022B0005370EDE70B4B0C4A68210C4800F018FCFA
:1022C000002A09D0924207D8016853009A18033AAD
:1022D0008A180023537010BD024B034A682103483B
:1022E00000F006FC8C780010D47C0010A878001058
:1022F00010B5017342608360FFF7C2FF10BD00009C
:1023000070B50400081E00D170BD002934D0237BB5
:10231000994231D84B005B18033B226894466344D2
:102320005A78002AF0D02DD0237B9A422AD8530025
:102330009B18033B21688C4663445D7800215970EB
:10234000002825D0237B984222D843001B18033B4A
:1023500021688C4663440021597001002000FFF77A
:102360006FFF060029002000FFF7CAFF02003100BE
:102370002000FFF765FFC7E7084B094A68210948B5
:1023800000F0B6FB054B064A6821064800F0B0FB9A
:10239000024B034A6821034800F0AAFB8C78001026
:1023A000D47C0010A878001070B505000C00160051
:1023B00000292FD034D0037B994231D84B005B18D1
:1023C000033B0268944663445A78002A2ED19A78D7
:1023D000002A31D11978FFF793FF0300002E0AD0AD
:1023E000EA7B002A2ED1AA7B002A03D1EA7B002AAD
:1023F0003BD1AC73EC73002B3DD1002C4FD02B7B29
:102400009C424CD82B6861000C19033C1C1900231A
:10241000637070BD254B264A3821264800F068FBC2
:10242000254B264A6821264800F062FB254B204AAE
:102430003A21204800F05CFB234B1D4A3B211D48FC
:1024400000F056FB002A0AD0297B8A4207D85100A7
:102450008A18033A29688C4662445470C3E7164BC5
:10246000164A6821164800F043FB184B104A4221D7
:10247000104800F03DFB002B0BD02A7B934208D87C
:1024800043001B18033B2A689446634400229A7059
:10249000B3E7094B094A6821094800F029FB064BBC
:1024A000064A6821064800F023FBC046DC7B00108A
:1024B000AC7C0010E47B00108C780010D47C001001
:1024C000A8780010287C0010507C0010D8790010EB
:1024D00070B504000A00457B2900FFF765FF6073B3
:1024E000280070BD70B50400002967D0437B8B4283
:1024F0000ED0002911D0037B99420ED84B005B18F7
:10250000033B0268D0188378002B0CD1002056E0E2
:102510000121FFF7DDFF012051E0294B294A682105
:10252000294800F0E5FA002B20D0227B93421DD8E9
:102530005A00D318033B2268D2182568EB5C8B4203
:102540001AD0002B1BD0227B934218D85A00D318E4
:10255000033B2268D21853788B4216D0002BF0D15F
:102560001A4B1B4A6B211B4800F0C2FA144B154A48
:102570006821154800F0BCFA4378137007E0104B4F
:10258000104A6821104800F0B3FA437853700023D2
:102590008370437001222000FFF706FF0200617B79
:1025A000814205D02000FFF74BFE6073012006E05A
:1025B000094B074A7121074800F09AFA002070BDC4
:1025C0008C780010D47C0010A8780010A076001041
:1025D000947C0010E47B0010747C001070B5046BD8
:1025E000E30701D4200070BD02003032C0239B01FC
:1025F00013430A4A1A60456A826AAD01AD18AD02FA
:10260000062000F0BDF9064901F020FC0100280079
:1026100001F01CFC0021FFF7C1FCE3E7010300000F
:102620004E0E000070B504000E001500FFF7D6FF37
:1026300022002C32E16A4E40354080235B01134377
:102640001D60206370BD000070B505000C00062001
:1026500000F096F9C000210001F0F8FBC60908D08F
:102660000E4B9E4216D87F23184001303400460896
:1026700000E001246C62AE62002200212800FFF716
:10268000D1FF062000F07CF98000A101891901F03A
:10269000DDFB70BD0026024CECE7C046FEFF0000EB
:1026A000FFFF000010B505394901013AD20011437E
:1026B000002B09D002220A43012B07D0002111432D
:1026C0006E22FFF7AFFF10BD0022F4E70421F6E70A
:1026D000002909D00A22064B9C46604443425841D7
:1026E0004000044BC252704780225200F3E7C046BC
:1026F0000080FCBF4C1E012070B505000C000620B8
:1027000000F03EF9061E27D0164B9D4226D08022AF
:10271000D203154B1A60154B1A60154B9B681100BC
:102720009943FAD100212800FFF7D2FF21002800A9
:10273000FFF78AFF06000023012208212800FFF787
:10274000B1FF2A002C3280239B01134310221A6010
:10275000084B2B630323AB64300070BD802212044E
:10276000D7E7C0460080034000E0004000F0004092
:1027700000C0004001030000F8B5DE4657464E4653
:102780004546E0B505000F0092460A9A934250D3A1
:102790001A0E91461E020A9A00233000494601F0A3
:1027A00093FB80466C006419A400304B9C46644443
:1027B0006368834200D260602B1FDBB29B46012B13
:1027C0003DD9C0239B012343802212011A60AB0034
:1027D000274A9958002907D0506901F037FB431C5C
:1027E0005800C0180338FDD253465A0123685A4096
:1027F000E0231A4080235B0123431A605A46012AD2
:1028000028D980239B012343802212011A6043466A
:102810006360424600233000494601F055FBAD009D
:10282000134B58510120F0BCBB46B246A946A04606
:10283000F8BD104B104A3321104800F059F9012F10
:10284000BFD1C0239B01234303221A60A368DB0787
:10285000FCD5C9E72168794003220A401A60A268C2
:102860000123BB401342FAD0CBE7C04600800040B2
:10287000A0170120E07C0010407D0010F47C0010C7
:1028800030B583B00C2000F011F9FEF72BFA0028C8
:102890000DD0002304E099002D4A2E4888500133C2
:1028A000092BF8D92A4B2C4A5A6203B030BD2B4B66
:1028B00000229A6700F002F9294B01221A60274B87
:1028C0005B6C012BFBD1274B03221A60234B9B6BC4
:1028D000012BFBD1013300930433234A0121234808
:1028E00000F054F805230093214A0121214800F00B
:1028F0004DF8214B0093002202210420FFF73CFFFA
:102900001E4D00952B00002201210520FFF734FF0A
:10291000104C00942300002200210720FFF72CFF19
:1029200000942300002200210820FFF725FF0A4B16
:1029300000932300002200210920FFF71DFF0095CE
:102940002B00002200210620FFF716FFADE7C0464E
:10295000A0170120006CDC021BB7000000800040C3
:102960003CB0004030B00040002F68590080024069
:10297000008C864700C00240001BB7004059730717
:102980008000014BC0587047A0170120F0B5C64623
:1029900000B504000E0017001D00374801F056FA7C
:1029A0008046364BFA18364B9A4239D80100380027
:1029B00001F04CFA0200103A98235B009A4235D895
:1029C0006B1E062B38D8069B013B062B34D83F09DB
:1029D000474537D32D04069B1A0315432368002B64
:1029E00036DB284B9C4244D080225201264B1A6091
:1029F000264B1A60264B9B6811009943FAD126603A
:102A0000A060231DC02292011A4321231360236872
:102A1000002BFCDAE5600823136080BCB846F0BDEB
:102A20001C4B1D4A11211D4800F062F81C4B1A4A2C
:102A300019211A4800F05CF81A4B174A1C21174854
:102A400000F056F8184B144A2321144800F050F8AF
:102A500022683F231340B342C3D1A3681B051B0D5B
:102A60008342BED1E368EE22D2021340AB42B8D11A
:102A7000D3E780229201B9E7001BB70080E84BD36F
:102A800080F8A93200C0024000E0004000F00040A1
:102A900000C00040507D00107C7E0010B07D001012
:102AA000F87D0010147E0010607E001080239B00D3
:102AB0000343014AD362704700800540064BAA22B7
:102AC00012011A602F22DA60044B054A1A60024B89
:102AD0005B68002BFBDA7047004002400060024058
:102AE00000B0FA0000BEFDE710B5FFF7FBFF0000E5
:102AF00010B582B00C001900002A0CD0084B002A37
:102B00000BD00192009323000200064802F0F2F974
:102B10000120FFF7E7FF044BF1E7034AF1E7C04666
:102B2000887E0010987E00106874001070B52B4BE2
:102B30002B4A1A602B4B2C4A1A602C4B9A682A4B52
:102B40009343FAD12A4C01E008CC9847294B9C4288
:102B5000FAD3FFF795FE234B274A1A60234B9B6855
:102B6000DB43DB01FAD1254B40229A675A671A678B
:102B7000DA66234C09E0234B234A87212348FFF7D9
:102B8000B7FF2000FEF76AFC0834214B9C4209D2B3
:102B90002368002BF5D0012BEDD12000FEF76BFC54
:102BA0000834F2E71B4CA1681B4DC022280002F03C
:102BB00049F8A560EFF30583002B00D000BEFEF7B7
:102BC000F3F8FEF735FCFEF7B9FF144C01E008CC32
:102BD0009847134B9C42FAD370BDC04600E00040BA
:102BE000BFCDFBFE00F00040FE7F3C0000C0004077
:102BF0004811012058110120FFFFFF0100F00140A2
:102C000040110120C87E0010487F0010E87E0010AF
:102C10004811012000ED00E00000002058110120C3
:102C2000601101200FB400B583B0084802F032F9FA
:102C3000049B002B07D005A90191180002F03AF976
:102C4000034802F027F90120FFF74CFF347F001002
:102C5000447F0010704710B5002802D00B68496807
:102C6000984710BD0100002007E083001B185B009F
:102C7000501C08601078C01830380A681378303B50
:102C8000DBB2092BF1D97047F0B5DE4657464E4608
:102C90004546E0B583B093461F000C9B9A460D9CB9
:102CA0000E9B99460F9B9B0703D0B8460F0006006A
:102CB00022E00192A34688464E46B9460700B44238
:102CC00007D2551C4B4641462020B84701342A0004
:102CD000F5E73D004F465C46019B9B46B1464646A4
:102CE000B84637002E0007E0013C551C5346185DDE
:102CF00043463900B0472A00002CF5D135003E008C
:102D000047460F9B9B0707D4100003B0F0BCBB469F
:102D1000B246A946A046F0BDB0464E46B9462F0081
:102D20005D46531BB342EFD2541C4B464146202014
:102D3000B8472200F5E7F0B5CE46474680B585B0E6
:102D4000944698460C9D0D9C0EAB1B789946109AA4
:102D5000119B129EB7071CD4002B0CD0F7070AD585
:102D60004F46002F02D10C37374204D0013B02E01E
:102D700030272F550134944201D21F2CF8D9F70780
:102D800007D59C4205D21F2C03D830272F5501347C
:102D9000F5E7F70615D5770505D4002C03D0944246
:102DA00024D09C4222D00F9A102A2BD00F9A102A9E
:102DB00030D00F9A022A35D01F2C02D830222A5543
:102DC00001341F2C05D84A46002A31D02D222A551D
:102DD0000134039602930194009543466246FFF73F
:102DE00053FF05B0C0BCB946B046F0BD621E012C11
:102DF00006D00F9F102F01D01400D4E7023CD2E779
:102E00001400D0E7B206D1D41F2CCFD878222A558F
:102E10000134D1E7B206CCD51F2CCAD858222A5586
:102E20000134C9E71F2CC7D860322A550134C3E7E3
:102E3000720703D52B222A550134CAE73207C8D5B9
:102E400020222A550134C4E7F0B5DE4657464E46E7
:102E50004546E0B593B081468A46089209931CAB7B
:102E600010CB1B789B461E9D219B9846002C03D1BE
:102E7000102342469A4390468023DB0046461E407C
:102E800042461A4212D0002C22D000260EE03033E7
:102E9000D9B2771C0AAB99552900200000F0D6FF63
:102EA000AC4216D31F2F14D83E0004002900200086
:102EB00000F0CCFFCBB2092BE9D94246920605D5EA
:102EC0004121C918C9B20A39C9B2E2E76121F8E75C
:102ED000270043460693209B05931F9B049303956D
:102EE0005B46029301970AAB0093099B089A5146EF
:102EF0004846FFF720FF13B0F0BCBB46B246A946D8
:102F0000A046F0BDF0B5DE4657464E464546E0B514
:102F100095B0089009910A920B931E9E1F9C20ABBE
:102F20001B789B46229B9946239D269B9A463300FD
:102F3000234303D1103352469A4392468023DB0049
:102F400057461F4052461A4219D0330023432DD012
:102F5000002714E03033DAB27B1C98460CABDA550C
:102F60004A462B003000210000F0AEFFA5421FD8DA
:102F700019D043461F2B1BD8474606000C004A4673
:102F80002B003000210000F09FFFD3B2092BE1D9C4
:102F90005246920605D54122D218D2B20A3AD2B28E
:102FA000DAE76122F8E7B145E3D901E0002398466A
:102FB00053460693259B0593249B04934B4603930A
:102FC0005B460293434601930CAB00930B9B0A9A1A
:102FD00009990898FFF7AFFE15B0F0BCBB46B246A2
:102FE000A946A046F0BD0000F0B5DE4657464E4665
:102FF0004546E0B591B083468A460C9298461A9CA5
:1030000008941B9D099522002B002000290001F047
:10301000E6F9002800D0E5E001225242D74B20001B
:10302000290001F0D7F9002800D0DBE0012252424C
:10303000D34B2000290001F0B7F9002800D0D1E0DF
:1030400000220023089E3000099D290001F0ACF900
:10305000002800D0DDE008980999069007918023A8
:10306000DB001E9A1A400D921E9A1A4201D10623C5
:103070001C930698079904000D000A0006000243FD
:1030800000D1D1E0080D4005400DBE4CA44660447F
:103090000A03120BBC4B13431F0001F0B3F9BB4AE8
:1030A000BB4B01F03EF9BB4ABB4B01F013F90400E6
:1030B0000D000022B94B3000390001F002F9B84A86
:1030C000B84B01F02EF902000B002000290001F09E
:1030D00001F901F0AFF9814601F094F904000D0007
:1030E000B14AB24B01F01DF90022B14B01F0F2F8E8
:1030F00001F0A0F90600AF4AAF4B2000290001F013
:1031000010F904000D00300001F07CF9AB4AAC4B23
:1031100001F007F902000B002000290001F0D1F8AE
:1031200004000D0002000B0001F0FBF80A900B9167
:10313000A44BF31800261F0522002B0020002900B5
:1031400001F0C8F80E900F9122002B000020802182
:10315000C90501F0B6F804000D0000229A4B0A9848
:103160000B9901F0C0F80022984B01F0B3F802006F
:103170000B000A980B9901F0B6F80022944B01F06D
:10318000A9F802000B000A980B9901F0ACF80200B4
:103190000B002000290001F09DF802000B000E98A2
:1031A0000F9901F0A0F80022774B01F093F832005C
:1031B0003B0001F0B6F806000F0004000D00069A6F
:1031C000079B01F007F9002830D001235B429C46A1
:1031D000E14400227D4B3000390001F084F8040006
:1031E0000D0023E01E9B04931D9B03931C9B0293E5
:1031F000089A099B0092019343460C9A51465846FF
:1032000000F0FCF811B0F0BCBB46B246A946A0469F
:10321000F0BD0023002406930794069680231B0626
:103220009C46654407951AE7002399464B4663334D
:10323000C62B1ED804261E9B1B0526D52B00234318
:103240000FD0644A644B0698079901F0BBF8002838
:1032500079D00022614B0698079901F0A5F8002863
:1032600071D01C9B4B4506DD4A46981A431E1C93A1
:1032700003E00526DFE700231C938023DB001E9A72
:103280001A431E920026002399461D9B9E4264D23B
:103290009F1B02231E9A1A400A921E9A134202D0C2
:1032A000002E00D000274B46002B07D022002B0019
:1032B0000698079901F017F806900791002200235D
:1032C0000898099901F070F8002848D1444B1E9ADB
:1032D0001340049303971C9B0293069B079C009347
:1032E000019443460C9A5146584600F087F8002E48
:1032F00000D187E71E9B9B063DD54525441C4346D0
:10330000020051462800D8474B46DA179B18534015
:1033100005220592013E0496002203920A3202928F
:103320004A46D00F0190009343462200514658462A
:10333000FFF78AFD0A9B002B00D163E702005F467E
:103340000C9E1D9D54E01C9B002B9ED00D9B002BC2
:103350009BD01C9B013B1C9397E7002799E7069C99
:10336000079D2200290080200006844661440B004E
:1033700006920793AAE76525C0E7C046FFFFEF7FE7
:10338000FFFFEFFF01FCFFFF0000F03FFB799F50C4
:103390001344D33FB3C8608B288AC63F0000F83F70
:1033A00061436F63A787D23F71A379094F930A40A6
:1033B0000000E03F1655B5BBB16B0240EF39FAFE95
:1033C000422EE63FFF03000000002C400000244096
:1033D000000018402D431CEBE2361A3F80842E413A
:1033E000FFF7FFFF541C434651462020B8472200F8
:1033F000931BAB42F6D3100004E7C046F0B5DE469F
:1034000057464E464546E0B595B00690079193461F
:103410009946209F1E9A1F9B1000190000F0DFFFA5
:10342000002831D101225242BF4B1E981F9900F053
:10343000BBFF002837D101225242BC4B1E981F9976
:1034400000F0C8FF00283DD10022B94B1E981F99FB
:1034500000F0C0FF002850D10022B64B1E981F99E3
:1034600000F0A2FF002848D1002200231E981F99D7
:1034700000F09AFF002850D100239846229B5B055C
:1034800000D4B6E0002458E0229B0393219B0293D2
:1034900003230193A84B00934B465A46079906987D
:1034A000FFF7F2FB0EE1229B0393219B029304237F
:1034B0000193A24B00934B465A4607990698FFF793
:1034C000E3FBFFE00423229A1A4022990B4210D01A
:1034D0009B4B002A0FD0042222990391219902913B
:1034E000019200934B465A4607990698FFF7CCFB8A
:1034F000E8E0944BEDE70322EEE7229B0493219B47
:10350000039302971E9B1F9C009301944B465A46BF
:1035100007990698FFF768FDD4E01E9A1F9B0020CC
:10352000002100F0CEFE1E901F9101239846A5E7D2
:103530000CAB30221A55013F01341F2C01D8092F42
:10354000F6D81E981F9900F075FF050000F05AFF8D
:1035500002000B001E981F9900F0B3FEFA007A4B90
:103560009B181A685B680A920B9300F0DAFE0890C9
:10357000099100F083FF060000F040FF02000B00FD
:103580000898099900F09DFE0890099100226F4B60
:1035900000F020FF00282ED00136300000F02EFF72
:1035A00002000B000A980B9900F004FF002801D0DC
:1035B00001350026002F2CD1280000F023FF020047
:1035C0000B001E981F9900F07CFE06000F000022E1
:1035D0005E4B00F0E9FE002846D100225B4B300034
:1035E000390000F0F7FE00283ED1EB073CD501354D
:1035F0003AE0062746E70022544B0898099900F064
:10360000D3FE0028D6D1002E01D0F307D2D5013643
:10361000D0E7AA461F2C11D8013F0A21300000F044
:1036200015FC651C30310CAB19550A21300000F037
:103630000DFC092E0ED906002C00EBE755461F2C79
:103640000CD87B1E002F09D00CAA302111551F0069
:103650000134F4E72B0055461C00F0E71F2C03D87B
:103660000CAB2E221A5501341F2C10D80A21280029
:1036700000F0C4FB661C30310CAB19550A21280040
:1036800000F0BCFB051E01D03400EDE7340003233D
:10369000229A1340012B1CD01F2C06D84346002B26
:1036A00032D00CAB2D221A550134229B0393219B5F
:1036B000029301940CAB00934B465A460799069827
:1036C000FFF7E2FA15B0F0BCBB46B246A946A046E9
:1036D000F0BD219B002B13D04346002B02D10C33AD
:1036E00013420FD0219B013B2193190003E00CAB47
:1036F00030221A5501348C42CED21F2CF7D9CBE799
:103700002199F8E72199F6E7229B5B0704D50CABDA
:103710002B221A550134C8E7229B1B07C5D50CABD9
:1037200020221A550134C0E7FFFFEFFFFFFFEF7FB4
:1037300065CDCD4165CDCDC1647F0010687F00109F
:103740005C7F0010587F0010508100100000E03FA7
:10375000F0B5DE4657464E464546E0B593B0824644
:103760008B4690461193002900D1EBE20027554685
:10377000119B1878002800D1E7E2252809D07C1C8D
:1037800043463A005946A847119B0133119327003D
:10379000EEE7013311930024119A11780B00203BBE
:1037A000D8B2102803D88300D048C3589F460B00D6
:1037B000303BDBB2092B2CD92A292FD000230A93C6
:1037C000119B1A782E2A39D000239A46119A137821
:1037D000683BD9B2122976D88B00C549CB589F4691
:1037E00001231C4301321192D6E702231C4301320C
:1037F0001192D1E704231C4301321192CCE7082334
:103800001C4301321192C7E710231C43013211926D
:10381000C2E711A8FFF726FA0A90D1E71C9B1A1DF0
:103820001C921868002804DB0A90119B0133119345
:10383000C6E702231C4343420A93F6E78022D200E4
:1038400014435A1C11925A781300303BDBB2092BF7
:1038500004D92A2A07D000239A46B7E711A8FFF710
:1038600001FA8246B2E71C9B1A1D1C9218680028B8
:1038700004DB8246119B01331193A7E70020F8E790
:1038800080235B002343511C119152786C2A01D094
:103890001C0018E0C0239B001C430131119112E071
:1038A00080232343511C11915278682A01D01C00B7
:1038B00009E0C0231C430131119104E080235B0027
:1038C0001C4301321192119B18780300253BDAB298
:1038D000532A00D92CE29300864AD3589F4680236E
:1038E0009B001C4301321192EDE780235B001C43D7
:1038F00001321192E7E7782809D0582838D06F288C
:1039000038D0622838D010239C430A2600E01026C5
:10391000582833D0692803D0642801D00C2294435E
:10392000630501D50122944369282AD0642828D050
:10393000A30500D59FE0E30500D5B8E0630600D4F9
:10394000CAE01C9A111D1C911168FF220A400594BF
:103950000A9B04935346039302960023019300921B
:1039600043463A0059462800FFF76EFA070027E061
:103970001026CDE70826CBE70226C9E7202214430C
:10398000C8E7A30520D4E30550D4630666D51C9A86
:10399000111D1C911168FF220A40D317D1185940FC
:1039A00005940A9B0493534603930296D20F019207
:1039B000009143463A0059462800FFF745FA0700B0
:1039C000119B01331193D3E61C9BDA1D07218A4317
:1039D000110008311C91116853689C46DB170C9349
:1039E0000D930C9A0D9B100048400E906246534078
:1039F0000F930E980F990C9A0D9B801A99410E9077
:103A00000F9108940A9B079353460693049600234C
:103A100005936346DA0F02920090019143463A0003
:103A200059462800FFF76EFA0700C9E71C9A111DD6
:103A30001C911268D317D118594005940A9B04931E
:103A4000534603930296D20F0192009143463A00E7
:103A500059462800FFF7F8F90700B1E7230605D516
:103A60001C9A111D1C910023D25E96E71C9A111D11
:103A70001C91126891E71C9BDA1D07218A431100F3
:103A800008311C9108940A9B0793534606930496A9
:103A900000230593029313685468009301944346EE
:103AA0003A0059462800FFF72DFA070088E71C9ACC
:103AB000111D1C9105940A9B04935346039302968F
:103AC000002301931368009343463A0059462800A7
:103AD000FFF7BAF9070073E723060DD51C9A111DED
:103AE0001C9112681204120C31E7C046707F00105E
:103AF000B47F0010008000101C9A111D1C911268E8
:103B000025E746281AD01C9B0733072293431A0047
:103B100008321C9204940A9A0392524602925C68FC
:103B20001B680093019443463A0059462800FFF76A
:103B300065FC0700119B0133119319E620231C43F8
:103B4000E1E7672801D0472802D180231B011C43ED
:103B5000452801D0472801D120231C431C9B073353
:103B6000072293431A0008321C9204940A9A039283
:103B7000524602925C681B680093019443463A00E7
:103B800059462800FFF730FA0700119B01331193C3
:103B9000EEE502231A002240924623421FD0012460
:103BA0001C9B1A1D1C927A1C9146187843463A00B9
:103BB0005946A8475346002B16D1119B0133119348
:103BC0004F46D5E5561C434659462020B8472300AA
:103BD00032005C1C9D42F5D83D001700E0E7012350
:103BE0003A002F000A9DF4E74A46A9460A9D06E0DE
:103BF000571C434659462020C84734003A00661CEB
:103C0000A542F5D84D469146D7E71C9B1A1D1C923C
:103C10001B6899465346002B00D1013B4E4601E0FC
:103C2000013613003278002A02D05A1E002BF7D139
:103C30004B46F21A10928023DB0026001E401C42E5
:103C400003D0524501D95346109302231A00224053
:103C50000B92234205D03A0037004C46A946554600
:103C600020E03A00109B5F46B3462E0006E0551C4C
:103C7000434639002020B04723002A005C1C0A99E3
:103C80009942F4D835005E46BB46109437004C4646
:103C9000A946554606E01D000134561C43465946C8
:103CA000C84732002078002804D0002FF4D06B1EC3
:103CB000002DF0D117004D460B9B002B03D1119B1B
:103CC0000133119354E50A9F109B06E0561C4346AE
:103CD00059462020A847230032005C1C9F42F5D89B
:103CE0001700ECE721231C431C9B1A1D1C921B6828
:103CF00000930594082304935346039310230293DF
:103D00000023019343463A0059462800FFF79CF8E8
:103D10000700119B013311932AE57C1C43463A00AE
:103D200059462520A847119B0133119327001FE511
:103D30007C1C43463A005946A847119B0133119316
:103D4000270015E50A4B9A4610E5AA46474502D3D7
:103D500043465A1E00E03A00434659460020D047E9
:103D6000380013B0F0BCBB46B246A946A046F0BD31
:103D7000552C001000B585B00290039101210093ED
:103D800013004A4202A90248FFF7E2FC05B000BD59
:103D9000572C001001480421014B1847E010012066
:103DA000C53D001010B5010018231B88142210888F
:103DB000984710BD10B5010018231B8816221088E3
:103DC000984710BDF0B5C64600B507000E000025A7
:103DD0000123984600E00135B5420AD2AC003C19F7
:103DE0002068FFF7DFFF20600028F4D10023984609
:103DF000F1E7404680BCB846F0BD0000124A936F20
:103E00009B0815D29066D166002905D0FFE7FFE731
:103E1000FFE7516F106F704704B580210906C21784
:103E20005140002800D0C84303F036FA002104BDF9
:103E3000F0B5146E556E576F166FFFF7E3FF1466FB
:103E4000556657671667F0BD000000D0114A936FA2
:103E50009B0813D210665166002905D0FFE7FFE7E3
:103E6000FFE7516F106F704704B5002801D00020A4
:103E7000C04303F011FA002104BDC046F0B5146E32
:103E8000556E576F166FFFF7E5FF14665566576757
:103E90001667F0BD000000D094464A4A926F92081F
:103EA000624601D228E0C046F0B5464E346E756ECB
:103EB000776F366F00F020F89446424A14665566D4
:103EC000576716676246F0BD94463E4A926F920865
:103ED000624601D254E0C046F0B53A4E346E756E7B
:103EE000776F366F00F04CF89446364A1466556684
:103EF000576716676246F0BD002B24DB11D00029FE
:103F00003EDA00B5C943404200D1013100F038F833
:103F1000C943404200D10131DB43524200D1013359
:103F200000BD002AEBD1002801D1002905D00020D6
:103F3000C90FC90701D1C043410800B503F094F986
:103F40000022002300BD00B500290ADBDB435242FA
:103F500000D1013300F014F8C943404200D10131CF
:103F600000BDC943404200D10131DB43524200D180
:103F7000013300F005F8DB43524200D1013300BDAC
:103F8000002923D1002B18D1002A0CD0BC460D4F9C
:103F900038667A6600210023FFE7FFE7FFE77A6FC4
:103FA000386F67467047002801D00748010000B508
:103FB00003F05AF90022002300BD02000B0000208C
:103FC00000217047000000D0FFFFFFFF002B00D052
:103FD000BFE0130C28D1002AE7D080B4114F396616
:103FE0007A66FFE7FFE730B4040C7B6F396F1B0480
:103FF00023433B667A66FFE7FFE7FFE7C04684B2EC
:104000007B6F3D6F1B0423433B667A66FFE7FFE748
:10401000C04600232C042D0C7A6F386F00196941BB
:10402000B0BC7047000000D0F0B594460025140ED7
:1040300001D112020835140F01D112010435940F79
:1040400001D192000235D40F01D152000135D40BB9
:104050000134254F7C66254C3C660E0C93B2FFE77D
:10406000FFE7FFE73C6F6643360C7703BE467343BA
:10407000DF0B5B04C01AB941130C7343DB18C91A78
:10408000CE086643360CB64493B273431F0F1B0130
:10409000C01AB941130C73431F0B1B05C01AB94159
:1040A000860D8F023E436643360C092D24DB520AEF
:1040B0007243801A7703460A6643360C16235B1B4D
:1040C000DE40DF40BF1964466643821B70460435FC
:1040D00006330100D940A840C01900D30131A242E3
:1040E00006D20023F0BD0000000000D0FFFFFFFF5C
:1040F000121B0130F3D3F1E709277F1BFE40644612
:10410000A2B27243801A00D20139220C7243130CFE
:104110001204821A99410B007046043513370100CE
:10412000F940A840801900D30131002B02D1A242EE
:104130000AD2F0BD013000D30131121BFAD2013B8B
:10414000F8D1A24200D2F0BD013000D30131121BE0
:10415000F7E7F0B51C0C00D080E00CB400251C0A79
:1041600004D11B02160E3343120208351C0B04D176
:104170001B01160F3343120104359C0B04D19B0025
:10418000960F334392000235DC0B02D192185B414B
:1041900001351C00971864410134464F7C66464C3B
:1041A0003C660E0CFFE7FFE7FFE7C0463C6F664347
:1041B000360C7703BE4697B27743C01B00D2013955
:1041C000C01B00D201399FB27743C91BC91B170C12
:1041D00077437E04FF0B801BB941CE086643360C43
:1041E0000C2D33DBB644120B1F053A431B0B97B261
:1041F0007743C01B00D201399FB27743C91B170C0C
:1042000077433E043F0C801BB941860D8F023E432D
:10421000664329277F1BFE400C3D7746AF40BF1900
:1042200030BCA2B2ABB272437343801A9941220CE4
:104230007243130C1204801A994102000B000137DB
:10424000001BA941F9D2781E0021F0BD0C277F1B6D
:10425000FE4077467F0BAF40FF19E0E700245D1C6E
:1042600007D0144F7D663966FFE7FFE7FFE7FFE7FA
:104270003C6F95B29EB265436643401BB141150C3D
:104280001E0C6543664336042F0C3E432D04401B31
:10429000B141994204D202000B0020000021F0BD80
:1042A00001D19042F7D3801A994101349942F2D357
:1042B000F6E70000000000D0FFFFFFFF484041404C
:1042C000484018B41B4B5B68FC46019308BD04DFF3
:1042D0009745001018B4174B1B68FC46019308BDA6
:1042E00000DFA14500109446134A926F920809D24C
:1042F000624618B40F4BDB68FC46019308BD0CDF27
:10430000594800100C4AF0B5146E556E576F166F71
:104310006246FFF7EEFF084A146655665767166750
:10432000F0BD18B4034B9B68FC46019308BD08DF41
:10433000FD460010301C0120000000D0FFB55040A9
:104340004240504059404B40594000E0FFB5154FA6
:104350004C00640D03D0BC4204D10C0314D80020DF
:10436000090D09055C00640D03D0BC4204D11C0397
:104370000AD800221B0D1B0501264B4009D44B40D7
:1043800003D58B4200D18242FFBD9942FCD19042BD
:10439000FFBD0B43DB1803431343F5D0C943491852
:1043A000FFBD0000FF07000000B5FFF7CFFF804111
:1043B00000BDC04600B5FFF7C9FF01D9002000BD10
:1043C000012000BD00B5FFF7B9FF01D9002000BDF5
:1043D000012000BD00B5FFF7B1FF804100BD012005
:1043E00040054A00121804D85A00121801D80020BB
:1043F000704701207047002070470000002100280E
:1044000005D17047C1174840401AFAD0C90713B503
:10441000064B1B6898470CBC441CA2401005120BAD
:104420000349091B09051943114310BD301D012023
:104430001F04000010B54C00620D8023D218DB0071
:10444000D21A5B057E2A10DD9E3A13DACC170903D7
:10445000490819435242D140640001341532202AE0
:1044600005DAD0400843604310BD002010BD084667
:10447000604310BDC80FC018013810BD18B4044BFC
:104480005B6AFC46019308BD24DF094A0010000066
:10449000301C012070B513231C78012C14D0012C82
:1044A00014DC022C02DC1F4A1F4B9A641F48FFF7E2
:1044B00079FC1F4B186070BD99001A481A4A885041
:1044C00001331F2BF8D9EAE70023FAE71948FFF771
:1044D00071FC05001848FFF76DFC023803789B005B
:1044E0007F2B19DD802229000F4800F0ABFB022C46
:1044F000D7D1124B1A88B5231B029A4209D1104B0F
:104500001A88104B9A4204D10F4B1A880F4B9A42CB
:10451000C7D00020FEF786FB0D4B0E4A32210E4815
:10452000FEF7E6FA5D450010301C01204C33000018
:10453000301D012053440000534600005438000051
:10454000D8380000494600009C3800005946000059
:10455000A081001048820010F481001007B5604669
:10456000002800D100BE01880A0A0230DF2AFAD1F1
:10457000C9B2820804D3028840880004104300E0D6
:104580000068024A5050039007BD0000301C012013
:104590000FB403BC0CBCF0B50124E407634000E099
:1045A000F0B50C0DCF0F661E3605891B640503D3CD
:1045B000C943404200D30131640D03D0661CF60AA2
:1045C00007D0E41B00207F00791C89078912803CFA
:1045D00024031D0DDF0F6E1E36059B1B6D0503D3D7
:1045E000DB43524200D301336D0D03D06E1CF60A3B
:1045F00007D0ED1B00227F007B1C9B079B12803D98
:104600002D032F1B661B58D4A446202E46DA2037D4
:104610001400BC401D00BD40F24033412A438018C5
:104620005941CB0F05D0C943C043002264425041D9
:10463000514162464D0D28D10D0D07D100281FD0E4
:10464000241940414941013A0D0DF9D0640006D3C7
:10465000013000D30131002C01D140084000013A63
:104660000BD4941CE40A04D112051144DB0719444D
:10467000F0BDD907204B194300E0D9070020F0BD59
:104680000029DDD1002CDBD1F0BD0132C607400886
:10469000CD0728434908002EE1D0D9E73C2E29DA7E
:1046A000203E40371400BC4000D00124F2401443A7
:1046B0001A00BB401C43D317ACE7AC46202F08DAE6
:1046C00020360400B4400D00B540F840394128437D
:1046D000A5E73C2F0CDA203F40360400B44000D060
:1046E0000124F84004430800B1400C43C117EAE735
:1046F00010001900002494E70000F07FF0B50C0DC5
:10470000661E3605891BE60A6405640D02D0651C29
:10471000ED0A04D0002001210905803C2403A446B1
:104720001C0D671E3F05DB1BE70A6405640D02D004
:10473000651CED0A04D0002201231B05803C2403E4
:104740007740644497B484B296B27443070C7E43B6
:10475000150C6F4380B26843361802D30120000461
:104760003F183004350C00197D41844688B29AB256
:1047700050430C0C62431F0C7C438EB27E43921953
:1047800002D301263604A4191604170C3618674103
:1047900001BC81B29AB25143040C62431B0C5C43CE
:1047A00080B25843121802D30120000424181004C8
:1047B000130C401863412D185E410020474106BC90
:1047C00088B293B258430C0C6343120C544389B221
:1047D00051435B1802D301210904641819041A0C0F
:1047E000091862416D1856410020474118BCF90272
:1047F000720D1143F0026A0D1043ED020A0D03D150
:104800006D1940414941013B124E9B1B7600B3425A
:104810000ED26D0007D30130002671416646354344
:1048200001D1400840001B05C918E4072144F0BD30
:104830000BDA013306D1013004D101314F0D01D023
:104840004908F2E7E1070020F0BD013631050020FC
:10485000EBE70000FF030000F0B51C0D671E3F05ED
:10486000DB1BE70A6405640D02D0661CF60A04D05F
:10487000002201231B05803C2403D0252D060026A1
:10488000F6432E661E096E66CE0FF619B446490031
:104890004F0D02D07E1CF60A03D000200021403FBD
:1048A0003F033E1BB600B444013F7F05C91B4908C6
:1048B0002E6F013676089C02950D25437543ED1346
:1048C0007543AD1301356D10F603761B0CB4CC02A5
:1048D000450D2C43A2B2B3B25A43270C7B43350C8F
:1048E0006F43A4B26C431B1902D3012424043F1963
:1048F0001C041D0CA4187D4124196D41009A91B22D
:10490000ACB26143170C7C432B0C5F4392B25A4309
:10491000A41802D301221204BF182204230C521837
:104920007B41019C6C431B19520ED9010A4344017F
:10493000A01A81B2B2B2514303145A43360C7343E6
:1049400087B27743D617D21900277E4136049B19C8
:104950001704160C7F185E417316ED18F30100263C
:1049600080337541A90F06D16400690AE8055B0A26
:10497000184309D22FE00422944480337541A90AD8
:10498000A8059B0A184326D3404149412404009AB4
:10499000019B0D005543641B4343E41A95B286B254
:1049A0007543170C7E43030C5F4392B25A43B6180B
:1049B00002D301221204BF183204330C52197B4176
:1049C00052429C41002C02D4002201305141400847
:1049D000CA071043490802B06246D7079210084B35
:1049E000D218084B9A4203D212058918C919F0BD92
:1049F0000020002A01DC3900F0BD01331905F5E77C
:104A0000FD030000FE070000002200B5203200F088
:104A100004F8080000BD000000220B150AD410B5F0
:104A2000944600F031F81414013400DA0021CB1759
:104A3000144C20470020002170476244343A0CD4C3
:104A40000C2A07DA04009140904052422032D440B0
:104A5000214310BDD843D94310BD203207D40C46A2
:104A60009440524220321141D040204310BD0800F2
:104A7000C917203203D452422032104110BD180011
:104A8000190010BD3B4A00100A0DCC0F531E1B0528
:104A9000C91A520503D3C943404200D30131520D14
:104AA00003D0531CDB0A07D0121B00206400611CDA
:104AB00089078912803A1203014BD21A704700000D
:104AC000FF03000051434343C9188C46110C83B2C5
:104AD0004B4310B4040C614392B280B25043624322
:104AE0001C041B0C001910BC59411304120CC018F3
:104AF000514161447047000070B513231D782A4866
:104B0000FFF758F90400012D11D0012D09DDA31E76
:104B10001B789B007F2B40DD80222100234800F082
:104B200091F82348FFF73EF9224B186070BD5422DC
:104B300001001E4800F086F81F4B1A881F4B9A424E
:104B40001CD1A7239B011A881D4B9A4216D11D4BDD
:104B50001A881D4B9A4211D11C4B1A8894239B0131
:104B60009A420BD11A4B1A881A4B9A4206D11A4B09
:104B70001A681A4B9A4201D1152307E01848FEF72C
:104B800051F899001748094A885001331F2BF8D96A
:104B9000144A064B1A62DA61B7E7134B134A4221F3
:104BA0001348FDF7A5FFC04653460000341D012001
:104BB0004C330000301D0120EE290000C40F00001E
:104BC000C20D0000962B0000C0B50000182B00009D
:104BD000CC2A000010B50000FC2C000051ED8764C9
:104BE00068740010F54B00105C820010E082001029
:104BF0009082001007B56046002800D100BE0188F1
:104C00000A0A0230DF2AFAD1C9B2820804D3028824
:104C100040880004104300E00068024A50500390AE
:104C200007BD0000341D012001480421014B184735
:104C3000F0100120C53D0010014B1B681847000013
:104C4000F0100120014B5B6818470000F0100120B4
:104C500010B50300080011001B68984710BD000044
:104C6000F8B507000D001600437D002B02D000248C
:104C700000200CE003681100280098472DE03B7DE0
:104C800010E0022115483B689847601C0134B4428B
:104C900014DA002CF3DD2B19013B1B780D3B5A4233
:104CA0005341DBB22A5D0A2AF0D1002BEED1A0429B
:104CB000E7DA211A28183B689847E2E7B04203DA9E
:104CC000311A28183B689847002E06DDAD19013DC2
:104CD0002B780D3B5A4253413B75F8BD7083001051
:104CE00070B505000368002B16D00C4B1C6805E05E
:104CF000290004C92000FFF7B3FF2469002C09D064
:104D00002368002BF9D0064B1B68002BF0D0A34280
:104D1000F3D1EDE700232B6070BDC04608180120D9
:104D20001018012070B505000C000B68802B05D011
:104D300021684B1C23606418257170BD0800FFF7C3
:104D4000CFFFF5E710B5FDF709F902000B1E0BDBED
:104D50000D48002112184B41002B0BDB002B0DDB03
:104D60000A4802F0C1FA10BD094B0A4A3F210A481D
:104D7000FDF7BEFE01225242084BEFE7044B054A05
:104D80003F210548FDF7B4FE40420F0040110120CD
:104D9000387300105883001054730010FFFFFF7F1A
:104DA00010B5024802F058FA10BDC046401101206B
:104DB000F0B5CE46474680B583B006000D0090465C
:104DC0001C00FFF7BFFF81466B1C05D0002C08D0EC
:104DD000194F1A4B1C6807E0300002F0CDF90500AE
:104DE000F4E7174FF5E72469002C17D02368002B50
:104DF000F9D0144B1B68002B01D0A342F3D12A0039
:104E000031002000B8474346002BECD06B46D91D3B
:104E10000A230B7001222000B847E4E74B46002B21
:104E200007D16B1E9D41E8B203B0C0BCB946B04685
:104E3000F0BDFFF7B5FFF4E7514C00100818012052
:104E4000614C001010180120094A01E010331A00CB
:104E50001368002B08D08342F8D1002907D10369D9
:104E600013600023036102E0002900D01060704746
:104E70000818012010B5064B1C6801E0984724690A
:104E8000002C03D06368002BF8D1F8E710BDC046B2
:104E90000818012070B5050002F06EF90400002327
:104EA000012201002800FFF783FFFFF7E3FF200046
:104EB00070BD000070B5A2B004000E00FFF742FF05
:104EC0000500002301933300220001A90848FEF7E2
:104ED00051FF040001A8FFF703FFFFF7CBFF002DF0
:104EE00002D1200022B070BDFFF75AFFF9E7C0469B
:104EF000254D00100FB400B583B004A901C901917C
:104F0000FFF7D8FF03B008BC04B01847F0B583B072
:104F100005000E0000240FE06B46D91D0D230B7019
:104F20000020002816D193699B06FCD40B781360EF
:104F300001300131F5E70134B44219DA0D4B1A683A
:104F40002F5D0D4BD31859424B415B000B495B5E03
:104F5000BB42E1D06B46D91D0F7000200028EAD17A
:104F600093699B06FCD40B78136001300131F5E79F
:104F700003B0F0BD541E01200080FCBF4C1E012078
:104F8000F0B583B006000F00002504E06B46073340
:104F90001B782B702500BD4215DA174B1A689369F0
:104FA0001024210019401C420DD16C1C75196B4650
:104FB000D81D0029EAD19369DB06FCD4136803707D
:104FC00001310130F5E70D4B1B68002B0CD00A4B6B
:104FD0001A685023936311003431536B38221A40FE
:104FE00080235B010B431A60002D02D0280003B020
:104FF000F0BD033DFAE7C046541E0120941701207E
:1050000010B5064B1B68002B06D0054A126800211C
:105010009163044A1068984710BDC0469417012058
:10502000541E01209817012070B504000E001C4B7F
:105030001B681C4A98184242504114300500002C4D
:1050400003D0194A1268002A06D0002C19D0164B3A
:105050001C60164B1E6070BD1549FBF757FF012100
:105060002800FBF743FF0E4B1A685023936311008F
:105070003431536B38221A4080235B010B431A6092
:10508000E5E7094A1268002AE1D000229A6300216C
:105090002800FBF72BFF06492800FCF77BF8D6E732
:1050A000541E01200080FCBF941701209817012096
:1050B0000150001070B50D001C000D4B1860002A47
:1050C0000BDA002C0EDA0A4B18682900FDF714FBE6
:1050D00001210848FFF7B8FE70BD02211000FBF760
:1050E000DDFDEEE702212000FBF7D8FDEBE7C0462F
:1050F000541E01200011012010B5024800F004F8F0
:1051000010BDC046281C012070B588B0040004AD55
:10511000002604960922002105A8FFF78DFD0096C0
:105120000922002101A8FFF787FD4B232B700D22D8
:105130006946280002F088F8002304E05A1D6946F9
:105140008A5CE2540133072BF8DD08B070BD000023
:1051500002007F201040D209400080184001014B1E
:10516000C01870471418012010B5038B3F333F223D
:105170009343022915D0124C2268C260D3182360D1
:105180009C0610D10F4C6240634080246401A3420E
:105190000FD88906114380231B0619434368196001
:1051A00010BD5B00E7E7084B084A54210848FDF7AB
:1051B0009FFC084B054A56210548FDF799FCC0465F
:1051C000141C012000001050E88400100C86001010
:1051D0001885001078850010F8B505000E00140041
:1051E000FFF7B6FF7F232B40EF0985707A427A41A3
:1051F00042700022C2700683C476012F0DD0DA00FF
:1052000012498C4662448260826800211160002B42
:1052100009D143600E4BC360F8BDDA000D498C46DE
:1052200062448260F0E7012F09D0013BDB000A4AAB
:105230009446634443602100FFF796FFECE7013B8F
:10524000DB00064A944663444360F4E78400105050
:1052500000011050800010500C0010500800105039
:1052600070B50C001500FFF773FF2A00210000F055
:105270000DF970BD10B5002804D101210520FBF700
:1052800035FE10BDD521034B034A49000348FDF705
:105290002FFCC046C0850010FC850010188500104A
:1052A00010B5002805D1002200218020FFF7D8FF8B
:1052B00010BDDB21024B034A49000348FDF718FCEF
:1052C000C0850010EC85001018850010024B80226C
:1052D0005202DA647047C0460020115070B5041EB7
:1052E00026D100F0ADF8164D0C23AB67FF2215490F
:1052F0000520FBF735FE402200211348FFF79CFCF8
:10530000002240210020FFF767FF0022402180207B
:10531000FFF762FF01F0B0FF01232B6480239B05A0
:10532000EB649023094AEA502000FFF7CFFF70BDDD
:105330008621074B074AFF310748FDF7D9FBC046D6
:1053400000001150A10400201418012010D0010009
:10535000C085001020860010188500100B785B06B1
:1053600002D14B78052B00D070478A78014B1A6028
:10537000FAE7C0460000115010B50C0000280DD10E
:10538000097963791B020B435B05590DE27892079B
:10539000920FA078FFF720FF012010BDFC21034BE6
:1053A000034AFF310348FDF7A3FBC046C085001048
:1053B000DC8500101885001010B501F05DFF10BDF0
:1053C00010B50400080011001A00002C03D1FFF7EB
:1053D00047FF012010BD034B034A04490448FDF771
:1053E00087FBC046C0850010CC8500100A02000073
:1053F0001885001010B508004B0605D1CB09012B0C
:105400000AD00222054B9A66FFF7A2FE8022120103
:10541000002101F081FF10BD0122F3E700201150AF
:1054200010B508004B0600D110BDFFF791FE002318
:10543000C3700022014901F06FFFF5E7FFF7FFFF9E
:1054400010B580235B040C4A13600C4A13600C4BAC
:105450009A6880235B049343F9D10A4C9C22002173
:105460002000FFF7E9FB8022520100210648FFF7E8
:10547000E3FB0923636710BD00E0004000F000403B
:1054800000C00040000011500000105070B5040032
:105490000D001600837E002B17D1A6820023E38225
:1054A0000133A3762561200001F0EEFE002804D030
:1054B000094A902380218902D150200001F00CFF7D
:1054C000002805D00123237770BD01F01DFFE4E71C
:1054D000200001F011FFF7E70020115070B5050022
:1054E00000240CE063001B19DA00184B1B689B18A2
:1054F000002B2AD05B68280098470134E4B2144B93
:105500001B78A34210D3134A002A0BD0A342E9D838
:10551000E31ADBB2002B18D15A00D218D2000E4B7E
:105520009B18E5E72300F5E70C4C532200212000EF
:10553000FFF782FBE01C1022FF21FFF77DFB20001C
:1055400013302022FF21FFF777FB70BD8812012066
:105550005A1E012000000000BC87001068150120C1
:1055600010B5FFF7BBFF00F0A3FD10BD70B505003F
:105570000C001600C86800F0A5FDE36832000121A8
:105580002800984770BD0000F0B5D6464F4680B55C
:1055900083B006000139C8B2FAF76AFF002800D1CB
:1055A00082E04378022B00D080E0C5796A11013B8C
:1055B000464C1A40110122781027BA430A43227040
:1055C000AD112B405B01D2B220218A4313432370DB
:1055D000070009378278C478240214430419A742CB
:1055E0005BD27B780B2B09D001239A467B78042B66
:1055F00062D1E31B9BB2994600251FE0FB789A46D7
:105600003B78FF18F2E76B005B19DA00304B1B6840
:105610009B1825E02B001CE02C482B00019A390038
:10562000133001F08FFB019B9C466744294B1B788C
:10563000AB42D4D200203AE00135EDB2254B1B78C5
:10564000AB42F3D3244A002AE4D0AB42DBD8EB1AB6
:10565000DBB2002B32D15A00D218D2001F4B9B185C
:10566000002B2DD09B684A463900300098470190A6
:105670000828E1D98145DFD300229245CCD9BB78F7
:105680009B18DBB21149C918C978FF291AD10F49F3
:10569000CB18DD700132D2B2EFE7114B002B13D0E3
:1056A000FAF730FE012002E0002000E0002003B005
:1056B000C0BCBA46B146F0BD0020F8E70020F6E7CE
:1056C0000020F4E70020F2E70120F0E76815012050
:1056D000881201205A1E012000000000BC87001023
:1056E0000503001070B505000C00CB7888780F2BEF
:1056F00050D89A002E498A589746FAF7B5FE02000C
:1057000012232100280000F099FC44E0294B002BD3
:1057100042D000E000BF021E40D08178C3781B0257
:105720000B432100280000F089FC34E0022B09D053
:10573000214B002B34D000E000BF0200002A05D12D
:10574000002028E0FAF794FE0200F7E79178D3787A
:105750001B020B432100280000F070FC1BE02379A2
:10576000617909021943FAF787FE021E1AD00378FD
:105770002100280000F062FC0DE0104B002B13D03C
:1057800000E000BF021E11D003782100280000F0C5
:1057900055FC00E0002070BD0020FCE70020FAE787
:1057A0000020F8E70020F6E70020F4E70020F2E709
:1057B0003087001000000000000000000000000022
:1057C000034B1878FF38431E9841C0B27047C0465B
:1057D0003C11012070B50400FFF7F2FF061E01D056
:1057E000300070BD532200212348FFF725FA234DD6
:1057F0002800FBF733FE224B1D60224D2800143099
:10580000FBF752FE280001F04FFB1F4B1D601F4BA2
:10581000002B04D01E4800E000BF1E4B186000257E
:105820000BE06B005B19DA001A4B1B689B18002B0E
:10583000D6D01B6898470135EDB2154B1B78AB42AB
:1058400010D3124A002A0BD0AB42EAD8EB1ADBB2D3
:10585000002BC5D15A00D218D2000F4B9B18E6E797
:105860002B00F5E70D4B1C702000FFF737FD2000E3
:10587000FFF700FD0126B3E7681501202015012080
:10588000BC15012020110120C015012000000000DE
:105890005A1E012088120120BC8700103C110120F3
:1058A00070B50C00094B1D788B7870221A4201D01C
:1058B000002070BD064B9978200001F007FA0028FF
:1058C000F7D021002800FFF757FDF2E73C11012037
:1058D00068150120F8B5CE46474680B581460C00D4
:1058E00017001E00089B9846002504E0099A1370D3
:1058F0002378E4180135AF4214DD6378052B16D107
:10590000E1788907890FB14213D121004846FFF79A
:10591000C7FF002807D0A378DA09012AE6D042465B
:105920001370E5E70120C0BCB946B046F8BD0020C1
:10593000F9E70020F7E70000F8B5CE46474680B506
:10594000194800787F250D40CE096F00174CE419E7
:10595000A4193034E478E40704D50020C0BCB9466B
:10596000B046F8BD114CE419A4193027B946A1443A
:105970004C46E4780127BC4667463C4327004C462A
:10598000E770FFF71DFD0028E8D16D00074B5D199A
:10599000AE193036F37801229343F370F378033273
:1059A0009343F370DAE7C0463C11012068150120EB
:1059B0007F220A40CB09520003498918C9183031A7
:1059C000C878C007C00F70476815012070B50F4B2D
:1059D00018787F240C40CD0962000D4B9B185B1991
:1059E0003033DB789B0700D570BDFFF703FD630004
:1059F000074CE41864193034E37802221343E3704F
:105A0000E37801221343E370EEE7C0463C11012026
:105A10006815012070B50F4B18787F240C40CD0914
:105A200062000D4B9B185B193033DB789B0700D469
:105A300070BDFFF7F5FC6300074CE41864193034BF
:105A4000E37802229343E370E378013A9343E370EF
:105A5000EEE7C0463C110120681501207F220A4074
:105A6000CB09520003498918C9183031C87880071A
:105A7000C00F704768150120F0B5C64600B582B06A
:105A800005000C00002000F01DFB2378602213406D
:105A9000602B00D185E1402B0FD02278D206D20EA8
:105AA000012A00D1C9E0022A00D10FE1002A11D059
:105AB000002002B080BCB846F0BDC74B002B00D11F
:105AC00071E1180000F0FEFA22000121280000E038
:105AD00000BFEEE7202B0AD0002B00D06BE16378EB
